{
  "_format": "hh-sol-artifact-1",
  "contractName": "AxlePresale",
  "sourceName": "contracts/AxlePresale.sol",
  "abi": [
    {
      "anonymous": false,
      "inputs": [
        {
          "indexed": true,
          "internalType": "address",
          "name": "previousOwner",
          "type": "address"
        },
        {
          "indexed": true,
          "internalType": "address",
          "name": "newOwner",
          "type": "address"
        }
      ],
      "name": "OwnershipTransferred",
      "type": "event"
    },
    {
      "anonymous": false,
      "inputs": [
        {
          "indexed": true,
          "internalType": "address",
          "name": "referrer",
          "type": "address"
        },
        {
          "indexed": false,
          "internalType": "uint256",
          "name": "commission",
          "type": "uint256"
        }
      ],
      "name": "ReferralCommissionRecorded",
      "type": "event"
    },
    {
      "anonymous": false,
      "inputs": [
        {
          "indexed": true,
          "internalType": "address",
          "name": "user",
          "type": "address"
        },
        {
          "indexed": true,
          "internalType": "address",
          "name": "referrer",
          "type": "address"
        }
      ],
      "name": "ReferralRecorded",
      "type": "event"
    },
    {
      "inputs": [
        {
          "internalType": "address",
          "name": "referAddress",
          "type": "address"
        }
      ],
      "name": "addReferAddress",
      "outputs": [],
      "stateMutability": "nonpayable",
      "type": "function"
    },
    {
      "inputs": [],
      "name": "bonusRewardpercentage",
      "outputs": [
        {
          "internalType": "uint256",
          "name": "",
          "type": "uint256"
        }
      ],
      "stateMutability": "view",
      "type": "function"
    },
    {
      "inputs": [],
      "name": "burnUnsoldTokens",
      "outputs": [],
      "stateMutability": "nonpayable",
      "type": "function"
    },
    {
      "inputs": [],
      "name": "buyToken",
      "outputs": [
        {
          "internalType": "address",
          "name": "",
          "type": "address"
        }
      ],
      "stateMutability": "payable",
      "type": "function"
    },
    {
      "inputs": [],
      "name": "closePresale",
      "outputs": [],
      "stateMutability": "nonpayable",
      "type": "function"
    },
    {
      "inputs": [
        {
          "internalType": "address",
          "name": "_userReferralsCount",
          "type": "address"
        }
      ],
      "name": "getReferralsCount",
      "outputs": [
        {
          "internalType": "uint256",
          "name": "",
          "type": "uint256"
        }
      ],
      "stateMutability": "view",
      "type": "function"
    },
    {
      "inputs": [
        {
          "internalType": "address",
          "name": "_user",
          "type": "address"
        }
      ],
      "name": "getReferrer",
      "outputs": [
        {
          "internalType": "address",
          "name": "",
          "type": "address"
        }
      ],
      "stateMutability": "view",
      "type": "function"
    },
    {
      "inputs": [
        {
          "internalType": "address",
          "name": "_userCommission",
          "type": "address"
        }
      ],
      "name": "getTotalReferralCommissions",
      "outputs": [
        {
          "internalType": "uint256",
          "name": "",
          "type": "uint256"
        }
      ],
      "stateMutability": "view",
      "type": "function"
    },
    {
      "inputs": [
        {
          "internalType": "address",
          "name": "to",
          "type": "address"
        }
      ],
      "name": "getUnsoldTokens",
      "outputs": [],
      "stateMutability": "nonpayable",
      "type": "function"
    },
    {
      "inputs": [],
      "name": "hardcap",
      "outputs": [
        {
          "internalType": "uint256",
          "name": "",
          "type": "uint256"
        }
      ],
      "stateMutability": "view",
      "type": "function"
    },
    {
      "inputs": [],
      "name": "isPresaleOpen",
      "outputs": [
        {
          "internalType": "bool",
          "name": "",
          "type": "bool"
        }
      ],
      "stateMutability": "view",
      "type": "function"
    },
    {
      "inputs": [],
      "name": "isRefereEnable",
      "outputs": [
        {
          "internalType": "bool",
          "name": "",
          "type": "bool"
        }
      ],
      "stateMutability": "view",
      "type": "function"
    },
    {
      "inputs": [],
      "name": "mainWallet",
      "outputs": [
        {
          "internalType": "address payable",
          "name": "",
          "type": "address"
        }
      ],
      "stateMutability": "view",
      "type": "function"
    },
    {
      "inputs": [],
      "name": "maxEthLimit",
      "outputs": [
        {
          "internalType": "uint256",
          "name": "",
          "type": "uint256"
        }
      ],
      "stateMutability": "view",
      "type": "function"
    },
    {
      "inputs": [],
      "name": "minEthLimit",
      "outputs": [
        {
          "internalType": "uint256",
          "name": "",
          "type": "uint256"
        }
      ],
      "stateMutability": "view",
      "type": "function"
    },
    {
      "inputs": [],
      "name": "owner",
      "outputs": [
        {
          "internalType": "address",
          "name": "",
          "type": "address"
        }
      ],
      "stateMutability": "view",
      "type": "function"
    },
    {
      "inputs": [],
      "name": "rateDecimals",
      "outputs": [
        {
          "internalType": "uint256",
          "name": "",
          "type": "uint256"
        }
      ],
      "stateMutability": "view",
      "type": "function"
    },
    {
      "inputs": [],
      "name": "recovereBnb",
      "outputs": [],
      "stateMutability": "nonpayable",
      "type": "function"
    },
    {
      "inputs": [
        {
          "internalType": "address",
          "name": "tokenAddres",
          "type": "address"
        },
        {
          "internalType": "uint256",
          "name": "tokenAmount",
          "type": "uint256"
        }
      ],
      "name": "recovertokens",
      "outputs": [],
      "stateMutability": "nonpayable",
      "type": "function"
    },
    {
      "inputs": [],
      "name": "referRewardpercentage",
      "outputs": [
        {
          "internalType": "uint256",
          "name": "",
          "type": "uint256"
        }
      ],
      "stateMutability": "view",
      "type": "function"
    },
    {
      "inputs": [],
      "name": "renounceOwnership",
      "outputs": [],
      "stateMutability": "nonpayable",
      "type": "function"
    },
    {
      "inputs": [
        {
          "internalType": "uint256",
          "name": "_hardcap",
          "type": "uint256"
        }
      ],
      "name": "setHardcap",
      "outputs": [],
      "stateMutability": "nonpayable",
      "type": "function"
    },
    {
      "inputs": [
        {
          "internalType": "uint256",
          "name": "amount",
          "type": "uint256"
        }
      ],
      "name": "setMaxEthLimit",
      "outputs": [],
      "stateMutability": "nonpayable",
      "type": "function"
    },
    {
      "inputs": [
        {
          "internalType": "uint256",
          "name": "amount",
          "type": "uint256"
        }
      ],
      "name": "setMinEthLimit",
      "outputs": [],
      "stateMutability": "nonpayable",
      "type": "function"
    },
    {
      "inputs": [
        {
          "internalType": "uint256",
          "name": "decimals",
          "type": "uint256"
        }
      ],
      "name": "setRateDecimals",
      "outputs": [],
      "stateMutability": "nonpayable",
      "type": "function"
    },
    {
      "inputs": [
        {
          "internalType": "uint256",
          "name": "rewardPercentage",
          "type": "uint256"
        }
      ],
      "name": "setReferRewardPercentage",
      "outputs": [],
      "stateMutability": "nonpayable",
      "type": "function"
    },
    {
      "inputs": [
        {
          "internalType": "address",
          "name": "token",
          "type": "address"
        }
      ],
      "name": "setTokenAddress",
      "outputs": [],
      "stateMutability": "nonpayable",
      "type": "function"
    },
    {
      "inputs": [
        {
          "internalType": "uint256",
          "name": "decimals",
          "type": "uint256"
        }
      ],
      "name": "setTokenDecimals",
      "outputs": [],
      "stateMutability": "nonpayable",
      "type": "function"
    },
    {
      "inputs": [
        {
          "internalType": "uint256",
          "name": "rate",
          "type": "uint256"
        }
      ],
      "name": "setTokenRatePerEth",
      "outputs": [],
      "stateMutability": "nonpayable",
      "type": "function"
    },
    {
      "inputs": [
        {
          "internalType": "bool",
          "name": "referset",
          "type": "bool"
        }
      ],
      "name": "setisReferEnabled",
      "outputs": [],
      "stateMutability": "nonpayable",
      "type": "function"
    },
    {
      "inputs": [],
      "name": "startPresale",
      "outputs": [],
      "stateMutability": "nonpayable",
      "type": "function"
    },
    {
      "inputs": [],
      "name": "tokenAddress",
      "outputs": [
        {
          "internalType": "address",
          "name": "",
          "type": "address"
        }
      ],
      "stateMutability": "view",
      "type": "function"
    },
    {
      "inputs": [],
      "name": "tokenDecimals",
      "outputs": [
        {
          "internalType": "uint256",
          "name": "",
          "type": "uint256"
        }
      ],
      "stateMutability": "view",
      "type": "function"
    },
    {
      "inputs": [],
      "name": "tokenRatePerEth",
      "outputs": [
        {
          "internalType": "uint256",
          "name": "",
          "type": "uint256"
        }
      ],
      "stateMutability": "view",
      "type": "function"
    },
    {
      "inputs": [],
      "name": "tokenSold",
      "outputs": [
        {
          "internalType": "uint256",
          "name": "",
          "type": "uint256"
        }
      ],
      "stateMutability": "view",
      "type": "function"
    },
    {
      "inputs": [],
      "name": "totalBNBAmount",
      "outputs": [
        {
          "internalType": "uint256",
          "name": "",
          "type": "uint256"
        }
      ],
      "stateMutability": "view",
      "type": "function"
    },
    {
      "inputs": [
        {
          "internalType": "address",
          "name": "newOwner",
          "type": "address"
        }
      ],
      "name": "transferOwnership",
      "outputs": [],
      "stateMutability": "nonpayable",
      "type": "function"
    },
    {
      "inputs": [
        {
          "internalType": "address",
          "name": "",
          "type": "address"
        }
      ],
      "name": "usersInvestments",
      "outputs": [
        {
          "internalType": "uint256",
          "name": "",
          "type": "uint256"
        }
      ],
      "stateMutability": "view",
      "type": "function"
    },
    {
      "stateMutability": "payable",
      "type": "receive"
    }
  ],
  "bytecode": "0x608060405260008060146101000a81548160ff0219169083151502179055506001600060156101000a81548160ff0219169083151502179055506001805560196002557346d3099487ddcf724df70ed11b40109dab586f79600360006101000a81548173ffffffffffffffffffffffffffffffffffffffff021916908373ffffffffffffffffffffffffffffffffffffffff1602179055507335deeb01504372443002cddc53db6aa1f3e25622600460006101000a81548173ffffffffffffffffffffffffffffffffffffffff021916908373ffffffffffffffffffffffffffffffffffffffff1602179055506009600555627270e0600655600260075560006008556000600960006101000a81548160ff0219169083151502179055506000600a55686c6b935b8bbd400000600b5567016345785d8a0000600c556802b5e3af16b1880000600d553480156200015557600080fd5b50620001766200016a6200017c60201b60201c565b6200018460201b60201c565b62000248565b600033905090565b60008060009054906101000a900473ffffffffffffffffffffffffffffffffffffffff169050816000806101000a81548173ffffffffffffffffffffffffffffffffffffffff021916908373ffffffffffffffffffffffffffffffffffffffff1602179055508173ffffffffffffffffffffffffffffffffffffffff168173ffffffffffffffffffffffffffffffffffffffff167f8be0079c531659141344cd1fd0a4f28419497f9722a3daafe3b4186f6b6457e060405160405180910390a35050565b612ebf80620002586000396000f3fe6080604052600436106102285760003560e01c806393e74ba411610123578063c96829f5116100ab578063efb268151161006f578063efb2681514610788578063f1cf257f146107b3578063f288dc10146107dc578063f2fde38b14610807578063faa06d6f1461083057610237565b8063c96829f5146106b5578063ce00bdef146106de578063e28fa27d14610709578063e868764c14610732578063eb4f847b1461075d57610237565b8063a4821719116100f2578063a4821719146105ef578063a846b6dc1461060d578063b071cbe614610636578063b6c494b114610661578063b97af2c81461068c57610237565b806393e74ba414610559578063940bb344146105965780639410d2b3146105ad5780639d76ea58146105c457610237565b80634a9fefc7116101b1578063715018a611610175578063715018a61461049c57806375ec6484146104b35780638d4ae896146104dc5780638da5cb5b146105055780639169612a1461053057610237565b80634a9fefc7146103b7578063519ee19e146103f45780635604a9eb1461041f5780635bb2a5281461045c57806363cea4501461048557610237565b80632243f3c5116101f85780632243f3c5146102e657806323b62b751461030f57806326a4e8d21461033a5780632fe7f2fa146103635780633b97e8561461038c57610237565b80625403d71461023c57806304c98b2b146102795780631a3480b51461029057806320d0cf47146102bb57610237565b366102375761023561085b565b005b600080fd5b34801561024857600080fd5b50610263600480360381019061025e91906123c3565b610cd2565b6040516102709190612409565b60405180910390f35b34801561028557600080fd5b5061028e610d1b565b005b34801561029c57600080fd5b506102a5610e04565b6040516102b29190612409565b60405180910390f35b3480156102c757600080fd5b506102d0610e0a565b6040516102dd919061243f565b60405180910390f35b3480156102f257600080fd5b5061030d60048036038101906103089190612486565b610e1d565b005b34801561031b57600080fd5b50610324610ea3565b60405161033191906124d4565b60405180910390f35b34801561034657600080fd5b50610361600480360381019061035c91906123c3565b610ec9565b005b34801561036f57600080fd5b5061038a600480360381019061038591906123c3565b610ff8565b005b34801561039857600080fd5b506103a1611004565b6040516103ae9190612409565b60405180910390f35b3480156103c357600080fd5b506103de60048036038101906103d991906123c3565b61100a565b6040516103eb91906124fe565b60405180910390f35b34801561040057600080fd5b50610409611073565b6040516104169190612409565b60405180910390f35b34801561042b57600080fd5b50610446600480360381019061044191906123c3565b611079565b6040516104539190612409565b60405180910390f35b34801561046857600080fd5b50610483600480360381019061047e9190612486565b6110c2565b005b34801561049157600080fd5b5061049a611148565b005b3480156104a857600080fd5b506104b161122f565b005b3480156104bf57600080fd5b506104da60048036038101906104d59190612486565b6112b7565b005b3480156104e857600080fd5b5061050360048036038101906104fe9190612519565b611350565b005b34801561051157600080fd5b5061051a611456565b60405161052791906124fe565b60405180910390f35b34801561053c57600080fd5b5061055760048036038101906105529190612486565b61147f565b005b34801561056557600080fd5b50610580600480360381019061057b91906123c3565b611505565b60405161058d9190612409565b60405180910390f35b3480156105a257600080fd5b506105ab61151d565b005b3480156105b957600080fd5b506105c2611713565b005b3480156105d057600080fd5b506105d96117fa565b6040516105e691906124fe565b60405180910390f35b6105f761085b565b60405161060491906124fe565b60405180910390f35b34801561061957600080fd5b50610634600480360381019061062f91906123c3565b611820565b005b34801561064257600080fd5b5061064b611a2b565b6040516106589190612409565b60405180910390f35b34801561066d57600080fd5b50610676611a31565b6040516106839190612409565b60405180910390f35b34801561069857600080fd5b506106b360048036038101906106ae9190612486565b611a37565b005b3480156106c157600080fd5b506106dc60048036038101906106d79190612585565b611abd565b005b3480156106ea57600080fd5b506106f3611b56565b6040516107009190612409565b60405180910390f35b34801561071557600080fd5b50610730600480360381019061072b9190612486565b611b5c565b005b34801561073e57600080fd5b50610747611be2565b6040516107549190612409565b60405180910390f35b34801561076957600080fd5b50610772611be8565b60405161077f919061243f565b60405180910390f35b34801561079457600080fd5b5061079d611bfb565b6040516107aa9190612409565b60405180910390f35b3480156107bf57600080fd5b506107da60048036038101906107d59190612486565b611c01565b005b3480156107e857600080fd5b506107f1611c87565b6040516107fe9190612409565b60405180910390f35b34801561081357600080fd5b5061082e600480360381019061082991906123c3565b611c8d565b005b34801561083c57600080fd5b50610845611d84565b6040516108529190612409565b60405180910390f35b60008060149054906101000a900460ff166108ab576040517f08c379a00000000000000000000000000000000000000000000000000000000081526004016108a29061260f565b60405180910390fd5b600d5461090034600e60003373ffffffffffffffffffffffffffffffffffffffff1673ffffffffffffffffffffffffffffffffffffffff16815260200190815260200160002054611d8a90919063ffffffff16565b111580156109615750600c5461095e34600e60003373ffffffffffffffffffffffffffffffffffffffff1673ffffffffffffffffffffffffffffffffffffffff16815260200190815260200160002054611d8a90919063ffffffff16565b10155b6109a0576040517f08c379a00000000000000000000000000000000000000000000000000000000081526004016109979061267b565b60405180910390fd5b6000806109ac34611da0565b905060006109d860646109ca60025485611e0590919063ffffffff16565b611e1b90919063ffffffff16565b905080826109e691906126ca565b9150600460009054906101000a900473ffffffffffffffffffffffffffffffffffffffff1673ffffffffffffffffffffffffffffffffffffffff1663a9059cbb33846040518363ffffffff1660e01b8152600401610a459291906126fe565b6020604051808303816000875af1158015610a64573d6000803e3d6000fd5b505050506040513d601f19601f82011682018060405250810190610a88919061273c565b610ac7576040517f08c379a0000000000000000000000000000000000000000000000000000000008152600401610abe906127db565b60405180910390fd5b8160086000828254610ad991906126ca565b925050819055506000610b0a6064610afc60015486611e0590919063ffffffff16565b611e1b90919063ffffffff16565b90506000610b173361100a565b9050600073ffffffffffffffffffffffffffffffffffffffff168173ffffffffffffffffffffffffffffffffffffffff1614158015610b565750600082115b8015610b6e5750600060159054906101000a900460ff165b15610c1e57610b7c82611e31565b600460009054906101000a900473ffffffffffffffffffffffffffffffffffffffff1673ffffffffffffffffffffffffffffffffffffffff1663a9059cbb82846040518363ffffffff1660e01b8152600401610bd99291906126fe565b6020604051808303816000875af1158015610bf8573d6000803e3d6000fd5b505050506040513d601f19601f82011682018060405250810190610c1c919061273c565b505b610c7034600e60003373ffffffffffffffffffffffffffffffffffffffff1673ffffffffffffffffffffffffffffffffffffffff16815260200190815260200160002054611d8a90919063ffffffff16565b600e60003373ffffffffffffffffffffffffffffffffffffffff1673ffffffffffffffffffffffffffffffffffffffff1681526020019081526020016000208190555034600a54610cc191906126ca565b600a81905550849550505050505090565b6000601160008373ffffffffffffffffffffffffffffffffffffffff1673ffffffffffffffffffffffffffffffffffffffff168152602001908152602001600020549050919050565b610d23611f29565b73ffffffffffffffffffffffffffffffffffffffff16610d41611456565b73ffffffffffffffffffffffffffffffffffffffff1614610d97576040517f08c379a0000000000000000000000000000000000000000000000000000000008152600401610d8e90612847565b60405180910390fd5b600060149054906101000a900460ff1615610de7576040517f08c379a0000000000000000000000000000000000000000000000000000000008152600401610dde906128b3565b60405180910390fd5b6001600060146101000a81548160ff021916908315150217905550565b60075481565b600060159054906101000a900460ff1681565b610e25611f29565b73ffffffffffffffffffffffffffffffffffffffff16610e43611456565b73ffffffffffffffffffffffffffffffffffffffff1614610e99576040517f08c379a0000000000000000000000000000000000000000000000000000000008152600401610e9090612847565b60405180910390fd5b8060078190555050565b600360009054906101000a900473ffffffffffffffffffffffffffffffffffffffff1681565b610ed1611f29565b73ffffffffffffffffffffffffffffffffffffffff16610eef611456565b73ffffffffffffffffffffffffffffffffffffffff1614610f45576040517f08c379a0000000000000000000000000000000000000000000000000000000008152600401610f3c90612847565b60405180910390fd5b600073ffffffffffffffffffffffffffffffffffffffff168173ffffffffffffffffffffffffffffffffffffffff1603610fb4576040517f08c379a0000000000000000000000000000000000000000000000000000000008152600401610fab9061291f565b60405180910390fd5b80600460006101000a81548173ffffffffffffffffffffffffffffffffffffffff021916908373ffffffffffffffffffffffffffffffffffffffff16021790555050565b61100181611f31565b50565b60055481565b6000600f60008373ffffffffffffffffffffffffffffffffffffffff1673ffffffffffffffffffffffffffffffffffffffff16815260200190815260200160002060009054906101000a900473ffffffffffffffffffffffffffffffffffffffff169050919050565b60085481565b6000601060008373ffffffffffffffffffffffffffffffffffffffff1673ffffffffffffffffffffffffffffffffffffffff168152602001908152602001600020549050919050565b6110ca611f29565b73ffffffffffffffffffffffffffffffffffffffff166110e8611456565b73ffffffffffffffffffffffffffffffffffffffff161461113e576040517f08c379a000000000000000000000000000000000000000000000000000000000815260040161113590612847565b60405180910390fd5b8060068190555050565b611150611f29565b73ffffffffffffffffffffffffffffffffffffffff1661116e611456565b73ffffffffffffffffffffffffffffffffffffffff16146111c4576040517f08c379a00000000000000000000000000000000000000000000000000000000081526004016111bb90612847565b60405180910390fd5b600060149054906101000a900460ff16611213576040517f08c379a000000000000000000000000000000000000000000000000000000000815260040161120a9061298b565b60405180910390fd5b60008060146101000a81548160ff021916908315150217905550565b611237611f29565b73ffffffffffffffffffffffffffffffffffffffff16611255611456565b73ffffffffffffffffffffffffffffffffffffffff16146112ab576040517f08c379a00000000000000000000000000000000000000000000000000000000081526004016112a290612847565b60405180910390fd5b6112b56000612286565b565b6112bf611f29565b73ffffffffffffffffffffffffffffffffffffffff166112dd611456565b73ffffffffffffffffffffffffffffffffffffffff1614611333576040517f08c379a000000000000000000000000000000000000000000000000000000000815260040161132a90612847565b60405180910390fd5b611347606482611e1b90919063ffffffff16565b600c8190555050565b611358611f29565b73ffffffffffffffffffffffffffffffffffffffff16611376611456565b73ffffffffffffffffffffffffffffffffffffffff16146113cc576040517f08c379a00000000000000000000000000000000000000000000000000000000081526004016113c390612847565b60405180910390fd5b8173ffffffffffffffffffffffffffffffffffffffff1663a9059cbb6113f0611456565b836040518363ffffffff1660e01b815260040161140e9291906126fe565b6020604051808303816000875af115801561142d573d6000803e3d6000fd5b505050506040513d601f19601f82011682018060405250810190611451919061273c565b505050565b60008060009054906101000a900473ffffffffffffffffffffffffffffffffffffffff16905090565b611487611f29565b73ffffffffffffffffffffffffffffffffffffffff166114a5611456565b73ffffffffffffffffffffffffffffffffffffffff16146114fb576040517f08c379a00000000000000000000000000000000000000000000000000000000081526004016114f290612847565b60405180910390fd5b8060018190555050565b600e6020528060005260406000206000915090505481565b611525611f29565b73ffffffffffffffffffffffffffffffffffffffff16611543611456565b73ffffffffffffffffffffffffffffffffffffffff1614611599576040517f08c379a000000000000000000000000000000000000000000000000000000000815260040161159090612847565b60405180910390fd5b600060149054906101000a900460ff16156115e9576040517f08c379a00000000000000000000000000000000000000000000000000000000081526004016115e090612a1d565b60405180910390fd5b600460009054906101000a900473ffffffffffffffffffffffffffffffffffffffff1673ffffffffffffffffffffffffffffffffffffffff166342966c68600460009054906101000a900473ffffffffffffffffffffffffffffffffffffffff1673ffffffffffffffffffffffffffffffffffffffff166370a08231306040518263ffffffff1660e01b815260040161168291906124fe565b602060405180830381865afa15801561169f573d6000803e3d6000fd5b505050506040513d601f19601f820116820180604052508101906116c39190612a52565b6040518263ffffffff1660e01b81526004016116df9190612409565b600060405180830381600087803b1580156116f957600080fd5b505af115801561170d573d6000803e3d6000fd5b50505050565b61171b611f29565b73ffffffffffffffffffffffffffffffffffffffff16611739611456565b73ffffffffffffffffffffffffffffffffffffffff161461178f576040517f08c379a000000000000000000000000000000000000000000000000000000000815260040161178690612847565b60405180910390fd5b600360009054906101000a900473ffffffffffffffffffffffffffffffffffffffff1673ffffffffffffffffffffffffffffffffffffffff166108fc479081150290604051600060405180830381858888f193505050501580156117f7573d6000803e3d6000fd5b50565b600460009054906101000a900473ffffffffffffffffffffffffffffffffffffffff1681565b611828611f29565b73ffffffffffffffffffffffffffffffffffffffff16611846611456565b73ffffffffffffffffffffffffffffffffffffffff161461189c576040517f08c379a000000000000000000000000000000000000000000000000000000000815260040161189390612847565b60405180910390fd5b600060149054906101000a900460ff16156118ec576040517f08c379a00000000000000000000000000000000000000000000000000000000081526004016118e390612af1565b60405180910390fd5b600460009054906101000a900473ffffffffffffffffffffffffffffffffffffffff1673ffffffffffffffffffffffffffffffffffffffff1663a9059cbb82600460009054906101000a900473ffffffffffffffffffffffffffffffffffffffff1673ffffffffffffffffffffffffffffffffffffffff166370a08231306040518263ffffffff1660e01b815260040161198691906124fe565b602060405180830381865afa1580156119a3573d6000803e3d6000fd5b505050506040513d601f19601f820116820180604052508101906119c79190612a52565b6040518363ffffffff1660e01b81526004016119e49291906126fe565b6020604051808303816000875af1158015611a03573d6000803e3d6000fd5b505050506040513d601f19601f82011682018060405250810190611a27919061273c565b5050565b600b5481565b60025481565b611a3f611f29565b73ffffffffffffffffffffffffffffffffffffffff16611a5d611456565b73ffffffffffffffffffffffffffffffffffffffff1614611ab3576040517f08c379a0000000000000000000000000000000000000000000000000000000008152600401611aaa90612847565b60405180910390fd5b8060058190555050565b611ac5611f29565b73ffffffffffffffffffffffffffffffffffffffff16611ae3611456565b73ffffffffffffffffffffffffffffffffffffffff1614611b39576040517f08c379a0000000000000000000000000000000000000000000000000000000008152600401611b3090612847565b60405180910390fd5b80600060156101000a81548160ff02191690831515021790555050565b600a5481565b611b64611f29565b73ffffffffffffffffffffffffffffffffffffffff16611b82611456565b73ffffffffffffffffffffffffffffffffffffffff1614611bd8576040517f08c379a0000000000000000000000000000000000000000000000000000000008152600401611bcf90612847565b60405180910390fd5b80600b8190555050565b60065481565b600060149054906101000a900460ff1681565b60015481565b611c09611f29565b73ffffffffffffffffffffffffffffffffffffffff16611c27611456565b73ffffffffffffffffffffffffffffffffffffffff1614611c7d576040517f08c379a0000000000000000000000000000000000000000000000000000000008152600401611c7490612847565b60405180910390fd5b80600d8190555050565b600c5481565b611c95611f29565b73ffffffffffffffffffffffffffffffffffffffff16611cb3611456565b73ffffffffffffffffffffffffffffffffffffffff1614611d09576040517f08c379a0000000000000000000000000000000000000000000000000000000008152600401611d0090612847565b60405180910390fd5b600073ffffffffffffffffffffffffffffffffffffffff168173ffffffffffffffffffffffffffffffffffffffff1603611d78576040517f08c379a0000000000000000000000000000000000000000000000000000000008152600401611d6f90612b83565b60405180910390fd5b611d8181612286565b50565b600d5481565b60008183611d9891906126ca565b905092915050565b6000611dfe611dcf600754611dc1600554601261234a90919063ffffffff16565b611d8a90919063ffffffff16565b600a611ddb9190612cd6565b611df060065485611e0590919063ffffffff16565b611e1b90919063ffffffff16565b9050919050565b60008183611e139190612d21565b905092915050565b60008183611e299190612d92565b905092915050565b6000611e3c3361100a565b9050600073ffffffffffffffffffffffffffffffffffffffff168173ffffffffffffffffffffffffffffffffffffffff1614158015611e7b5750600082115b15611f255781601160008373ffffffffffffffffffffffffffffffffffffffff1673ffffffffffffffffffffffffffffffffffffffff1681526020019081526020016000206000828254611ecf91906126ca565b925050819055508073ffffffffffffffffffffffffffffffffffffffff167f91badd4ef769cf56b7db0b350b95c9fb6d973e6e37d28a51fed219cc7d53184f83604051611f1c9190612409565b60405180910390a25b5050565b600033905090565b6000339050600073ffffffffffffffffffffffffffffffffffffffff168173ffffffffffffffffffffffffffffffffffffffff1614158015611fa05750600073ffffffffffffffffffffffffffffffffffffffff168273ffffffffffffffffffffffffffffffffffffffff1614155b8015611fd857508173ffffffffffffffffffffffffffffffffffffffff168173ffffffffffffffffffffffffffffffffffffffff1614155b801561206f5750600073ffffffffffffffffffffffffffffffffffffffff16600f60008373ffffffffffffffffffffffffffffffffffffffff1673ffffffffffffffffffffffffffffffffffffffff16815260200190815260200160002060009054906101000a900473ffffffffffffffffffffffffffffffffffffffff1673ffffffffffffffffffffffffffffffffffffffff16145b15612282576000600460009054906101000a900473ffffffffffffffffffffffffffffffffffffffff1673ffffffffffffffffffffffffffffffffffffffff166370a08231846040518263ffffffff1660e01b81526004016120d191906124fe565b602060405180830381865afa1580156120ee573d6000803e3d6000fd5b505050506040513d601f19601f820116820180604052508101906121129190612a52565b11612152576040517f08c379a000000000000000000000000000000000000000000000000000000000815260040161214990612e35565b60405180910390fd5b81600f60008373ffffffffffffffffffffffffffffffffffffffff1673ffffffffffffffffffffffffffffffffffffffff16815260200190815260200160002060006101000a81548173ffffffffffffffffffffffffffffffffffffffff021916908373ffffffffffffffffffffffffffffffffffffffff1602179055506001601060008473ffffffffffffffffffffffffffffffffffffffff1673ffffffffffffffffffffffffffffffffffffffff168152602001908152602001600020600082825461222091906126ca565b925050819055508173ffffffffffffffffffffffffffffffffffffffff168173ffffffffffffffffffffffffffffffffffffffff167ff61ccbe316daff56654abed758191f9a4dcac526d43747a50a2d545c0ca64d8260405160405180910390a35b5050565b60008060009054906101000a900473ffffffffffffffffffffffffffffffffffffffff169050816000806101000a81548173ffffffffffffffffffffffffffffffffffffffff021916908373ffffffffffffffffffffffffffffffffffffffff1602179055508173ffffffffffffffffffffffffffffffffffffffff168173ffffffffffffffffffffffffffffffffffffffff167f8be0079c531659141344cd1fd0a4f28419497f9722a3daafe3b4186f6b6457e060405160405180910390a35050565b600081836123589190612e55565b905092915050565b600080fd5b600073ffffffffffffffffffffffffffffffffffffffff82169050919050565b600061239082612365565b9050919050565b6123a081612385565b81146123ab57600080fd5b50565b6000813590506123bd81612397565b92915050565b6000602082840312156123d9576123d8612360565b5b60006123e7848285016123ae565b91505092915050565b6000819050919050565b612403816123f0565b82525050565b600060208201905061241e60008301846123fa565b92915050565b60008115159050919050565b61243981612424565b82525050565b60006020820190506124546000830184612430565b92915050565b612463816123f0565b811461246e57600080fd5b50565b6000813590506124808161245a565b92915050565b60006020828403121561249c5761249b612360565b5b60006124aa84828501612471565b91505092915050565b60006124be82612365565b9050919050565b6124ce816124b3565b82525050565b60006020820190506124e960008301846124c5565b92915050565b6124f881612385565b82525050565b600060208201905061251360008301846124ef565b92915050565b600080604083850312156125305761252f612360565b5b600061253e858286016123ae565b925050602061254f85828601612471565b9150509250929050565b61256281612424565b811461256d57600080fd5b50565b60008135905061257f81612559565b92915050565b60006020828403121561259b5761259a612360565b5b60006125a984828501612570565b91505092915050565b600082825260208201905092915050565b7f50726573616c65206973206e6f74206f70656e2e000000000000000000000000600082015250565b60006125f96014836125b2565b9150612604826125c3565b602082019050919050565b60006020820190508181036000830152612628816125ec565b9050919050565b7f496e7374616c6c6d656e7420496e76616c69642e000000000000000000000000600082015250565b60006126656014836125b2565b91506126708261262f565b602082019050919050565b6000602082019050818103600083015261269481612658565b9050919050565b7f4e487b7100000000000000000000000000000000000000000000000000000000600052601160045260246000fd5b60006126d5826123f0565b91506126e0836123f0565b92508282019050808211156126f8576126f761269b565b5b92915050565b600060408201905061271360008301856124ef565b61272060208301846123fa565b9392505050565b60008151905061273681612559565b92915050565b60006020828403121561275257612751612360565b5b600061276084828501612727565b91505092915050565b7f496e73756666696369656e742062616c616e6365206f662070726573616c652060008201527f636f6e7472616374210000000000000000000000000000000000000000000000602082015250565b60006127c56029836125b2565b91506127d082612769565b604082019050919050565b600060208201905081810360008301526127f4816127b8565b9050919050565b7f4f776e61626c653a2063616c6c6572206973206e6f7420746865206f776e6572600082015250565b60006128316020836125b2565b915061283c826127fb565b602082019050919050565b6000602082019050818103600083015261286081612824565b9050919050565b7f50726573616c65206973206f70656e0000000000000000000000000000000000600082015250565b600061289d600f836125b2565b91506128a882612867565b602082019050919050565b600060208201905081810360008301526128cc81612890565b9050919050565b7f546f6b656e2061646472657373207a65726f206e6f7420616c6c6f7765642e00600082015250565b6000612909601f836125b2565b9150612914826128d3565b602082019050919050565b60006020820190508181036000830152612938816128fc565b9050919050565b7f50726573616c65206973206e6f74206f70656e207965742e0000000000000000600082015250565b60006129756018836125b2565b91506129808261293f565b602082019050919050565b600060208201905081810360008301526129a481612968565b9050919050565b7f596f752063616e6e6f74206275726e20746f6b656e7320756e7469746c20746860008201527f652070726573616c6520697320636c6f7365642e000000000000000000000000602082015250565b6000612a076034836125b2565b9150612a12826129ab565b604082019050919050565b60006020820190508181036000830152612a36816129fa565b9050919050565b600081519050612a4c8161245a565b92915050565b600060208284031215612a6857612a67612360565b5b6000612a7684828501612a3d565b91505092915050565b7f596f752063616e6e6f742067657420746f6b656e7320756e74696c207468652060008201527f70726573616c6520697320636c6f7365642e0000000000000000000000000000602082015250565b6000612adb6032836125b2565b9150612ae682612a7f565b604082019050919050565b60006020820190508181036000830152612b0a81612ace565b9050919050565b7f4f776e61626c653a206e6577206f776e657220697320746865207a65726f206160008201527f6464726573730000000000000000000000000000000000000000000000000000602082015250565b6000612b6d6026836125b2565b9150612b7882612b11565b604082019050919050565b60006020820190508181036000830152612b9c81612b60565b9050919050565b60008160011c9050919050565b6000808291508390505b6001851115612bfa57808604811115612bd657612bd561269b565b5b6001851615612be55780820291505b8081029050612bf385612ba3565b9450612bba565b94509492505050565b600082612c135760019050612ccf565b81612c215760009050612ccf565b8160018114612c375760028114612c4157612c70565b6001915050612ccf565b60ff841115612c5357612c5261269b565b5b8360020a915084821115612c6a57612c6961269b565b5b50612ccf565b5060208310610133831016604e8410600b8410161715612ca55782820a905083811115612ca057612c9f61269b565b5b612ccf565b612cb28484846001612bb0565b92509050818404811115612cc957612cc861269b565b5b81810290505b9392505050565b6000612ce1826123f0565b9150612cec836123f0565b9250612d197fffffffffffffffffffffffffffffffffffffffffffffffffffffffffffffffff8484612c03565b905092915050565b6000612d2c826123f0565b9150612d37836123f0565b9250828202612d45816123f0565b91508282048414831517612d5c57612d5b61269b565b5b5092915050565b7f4e487b7100000000000000000000000000000000000000000000000000000000600052601260045260246000fd5b6000612d9d826123f0565b9150612da8836123f0565b925082612db857612db7612d63565b5b828204905092915050565b7f5265666572726572206d757374206861766520626f756768742041584c45207460008201527f6f6b656e732070726576696f75736c7900000000000000000000000000000000602082015250565b6000612e1f6030836125b2565b9150612e2a82612dc3565b604082019050919050565b60006020820190508181036000830152612e4e81612e12565b9050919050565b6000612e60826123f0565b9150612e6b836123f0565b9250828203905081811115612e8357612e8261269b565b5b9291505056fea264697066735822122077da57ed479b6018bd52e2df39ea3668cd72205996902414b0d099995c9460e864736f6c63430008110033",
  "linkReferences": {},
  "deployedLinkReferences": {}
}