{
  "_format": "hh-sol-artifact-1",
  "contractName": "AxleToken",
  "sourceName": "contracts/AxleToken.sol",
  "abi": [
    {
      "inputs": [],
      "stateMutability": "nonpayable",
      "type": "constructor"
    },
    {
      "anonymous": false,
      "inputs": [
        {
          "indexed": true,
          "internalType": "address",
          "name": "owner",
          "type": "address"
        },
        {
          "indexed": true,
          "internalType": "address",
          "name": "spender",
          "type": "address"
        },
        {
          "indexed": false,
          "internalType": "uint256",
          "name": "value",
          "type": "uint256"
        }
      ],
      "name": "Approval",
      "type": "event"
    },
    {
      "anonymous": false,
      "inputs": [
        {
          "indexed": true,
          "internalType": "address",
          "name": "account",
          "type": "address"
        },
        {
          "indexed": false,
          "internalType": "bool",
          "name": "isExcluded",
          "type": "bool"
        }
      ],
      "name": "ExcludeFromFees",
      "type": "event"
    },
    {
      "anonymous": false,
      "inputs": [
        {
          "indexed": false,
          "internalType": "address[]",
          "name": "accounts",
          "type": "address[]"
        },
        {
          "indexed": false,
          "internalType": "bool",
          "name": "isExcluded",
          "type": "bool"
        }
      ],
      "name": "ExcludeMultipleAccountsFromFees",
      "type": "event"
    },
    {
      "anonymous": false,
      "inputs": [
        {
          "indexed": true,
          "internalType": "address",
          "name": "newLiquidityWallet",
          "type": "address"
        },
        {
          "indexed": true,
          "internalType": "address",
          "name": "oldLiquidityWallet",
          "type": "address"
        }
      ],
      "name": "LiquidityWalletUpdated",
      "type": "event"
    },
    {
      "anonymous": false,
      "inputs": [
        {
          "indexed": true,
          "internalType": "address",
          "name": "previousOwner",
          "type": "address"
        },
        {
          "indexed": true,
          "internalType": "address",
          "name": "newOwner",
          "type": "address"
        }
      ],
      "name": "OwnershipTransferred",
      "type": "event"
    },
    {
      "anonymous": false,
      "inputs": [
        {
          "indexed": true,
          "internalType": "address",
          "name": "pair",
          "type": "address"
        },
        {
          "indexed": true,
          "internalType": "bool",
          "name": "value",
          "type": "bool"
        }
      ],
      "name": "SetAutomatedMarketMakerPair",
      "type": "event"
    },
    {
      "anonymous": false,
      "inputs": [
        {
          "indexed": true,
          "internalType": "address",
          "name": "from",
          "type": "address"
        },
        {
          "indexed": true,
          "internalType": "address",
          "name": "to",
          "type": "address"
        },
        {
          "indexed": false,
          "internalType": "uint256",
          "name": "value",
          "type": "uint256"
        }
      ],
      "name": "Transfer",
      "type": "event"
    },
    {
      "anonymous": false,
      "inputs": [
        {
          "indexed": true,
          "internalType": "address",
          "name": "newAddress",
          "type": "address"
        },
        {
          "indexed": true,
          "internalType": "address",
          "name": "oldAddress",
          "type": "address"
        }
      ],
      "name": "UpdateUniswapV2Router",
      "type": "event"
    },
    {
      "inputs": [
        {
          "internalType": "address",
          "name": "",
          "type": "address"
        }
      ],
      "name": "_isBlacklisted",
      "outputs": [
        {
          "internalType": "bool",
          "name": "",
          "type": "bool"
        }
      ],
      "stateMutability": "view",
      "type": "function"
    },
    {
      "inputs": [
        {
          "internalType": "address",
          "name": "owner",
          "type": "address"
        },
        {
          "internalType": "address",
          "name": "spender",
          "type": "address"
        }
      ],
      "name": "allowance",
      "outputs": [
        {
          "internalType": "uint256",
          "name": "",
          "type": "uint256"
        }
      ],
      "stateMutability": "view",
      "type": "function"
    },
    {
      "inputs": [],
      "name": "antiBotEnabled",
      "outputs": [
        {
          "internalType": "bool",
          "name": "",
          "type": "bool"
        }
      ],
      "stateMutability": "view",
      "type": "function"
    },
    {
      "inputs": [
        {
          "internalType": "address",
          "name": "",
          "type": "address"
        }
      ],
      "name": "antiDump",
      "outputs": [
        {
          "internalType": "uint256",
          "name": "",
          "type": "uint256"
        }
      ],
      "stateMutability": "view",
      "type": "function"
    },
    {
      "inputs": [],
      "name": "antiDumpAmount",
      "outputs": [
        {
          "internalType": "uint256",
          "name": "",
          "type": "uint256"
        }
      ],
      "stateMutability": "view",
      "type": "function"
    },
    {
      "inputs": [],
      "name": "antiDumpEnabled",
      "outputs": [
        {
          "internalType": "bool",
          "name": "",
          "type": "bool"
        }
      ],
      "stateMutability": "view",
      "type": "function"
    },
    {
      "inputs": [],
      "name": "antiDumpTime",
      "outputs": [
        {
          "internalType": "uint256",
          "name": "",
          "type": "uint256"
        }
      ],
      "stateMutability": "view",
      "type": "function"
    },
    {
      "inputs": [
        {
          "internalType": "address",
          "name": "spender",
          "type": "address"
        },
        {
          "internalType": "uint256",
          "name": "amount",
          "type": "uint256"
        }
      ],
      "name": "approve",
      "outputs": [
        {
          "internalType": "bool",
          "name": "",
          "type": "bool"
        }
      ],
      "stateMutability": "nonpayable",
      "type": "function"
    },
    {
      "inputs": [
        {
          "internalType": "address",
          "name": "",
          "type": "address"
        }
      ],
      "name": "automatedMarketMakerPairs",
      "outputs": [
        {
          "internalType": "bool",
          "name": "",
          "type": "bool"
        }
      ],
      "stateMutability": "view",
      "type": "function"
    },
    {
      "inputs": [
        {
          "internalType": "address",
          "name": "account",
          "type": "address"
        }
      ],
      "name": "balanceOf",
      "outputs": [
        {
          "internalType": "uint256",
          "name": "",
          "type": "uint256"
        }
      ],
      "stateMutability": "view",
      "type": "function"
    },
    {
      "inputs": [
        {
          "internalType": "address",
          "name": "account",
          "type": "address"
        },
        {
          "internalType": "bool",
          "name": "value",
          "type": "bool"
        }
      ],
      "name": "blacklistAddress",
      "outputs": [],
      "stateMutability": "nonpayable",
      "type": "function"
    },
    {
      "inputs": [],
      "name": "buyFee",
      "outputs": [
        {
          "internalType": "uint256",
          "name": "",
          "type": "uint256"
        }
      ],
      "stateMutability": "view",
      "type": "function"
    },
    {
      "inputs": [],
      "name": "deadWallet",
      "outputs": [
        {
          "internalType": "address",
          "name": "",
          "type": "address"
        }
      ],
      "stateMutability": "view",
      "type": "function"
    },
    {
      "inputs": [],
      "name": "decimals",
      "outputs": [
        {
          "internalType": "uint8",
          "name": "",
          "type": "uint8"
        }
      ],
      "stateMutability": "view",
      "type": "function"
    },
    {
      "inputs": [
        {
          "internalType": "address",
          "name": "spender",
          "type": "address"
        },
        {
          "internalType": "uint256",
          "name": "subtractedValue",
          "type": "uint256"
        }
      ],
      "name": "decreaseAllowance",
      "outputs": [
        {
          "internalType": "bool",
          "name": "",
          "type": "bool"
        }
      ],
      "stateMutability": "nonpayable",
      "type": "function"
    },
    {
      "inputs": [
        {
          "internalType": "address",
          "name": "account",
          "type": "address"
        },
        {
          "internalType": "bool",
          "name": "excluded",
          "type": "bool"
        }
      ],
      "name": "excludeFromFees",
      "outputs": [],
      "stateMutability": "nonpayable",
      "type": "function"
    },
    {
      "inputs": [
        {
          "internalType": "address[]",
          "name": "accounts",
          "type": "address[]"
        },
        {
          "internalType": "bool",
          "name": "excluded",
          "type": "bool"
        }
      ],
      "name": "excludeMultipleAccountsFromFees",
      "outputs": [],
      "stateMutability": "nonpayable",
      "type": "function"
    },
    {
      "inputs": [],
      "name": "feeWallet",
      "outputs": [
        {
          "internalType": "address",
          "name": "",
          "type": "address"
        }
      ],
      "stateMutability": "view",
      "type": "function"
    },
    {
      "inputs": [],
      "name": "firstVerifier",
      "outputs": [
        {
          "internalType": "address",
          "name": "",
          "type": "address"
        }
      ],
      "stateMutability": "view",
      "type": "function"
    },
    {
      "inputs": [
        {
          "internalType": "address",
          "name": "spender",
          "type": "address"
        },
        {
          "internalType": "uint256",
          "name": "addedValue",
          "type": "uint256"
        }
      ],
      "name": "increaseAllowance",
      "outputs": [
        {
          "internalType": "bool",
          "name": "",
          "type": "bool"
        }
      ],
      "stateMutability": "nonpayable",
      "type": "function"
    },
    {
      "inputs": [
        {
          "internalType": "address",
          "name": "account",
          "type": "address"
        }
      ],
      "name": "isExcludedFromFees",
      "outputs": [
        {
          "internalType": "bool",
          "name": "",
          "type": "bool"
        }
      ],
      "stateMutability": "view",
      "type": "function"
    },
    {
      "inputs": [
        {
          "internalType": "address",
          "name": "",
          "type": "address"
        }
      ],
      "name": "lastSellstamp",
      "outputs": [
        {
          "internalType": "uint256",
          "name": "",
          "type": "uint256"
        }
      ],
      "stateMutability": "view",
      "type": "function"
    },
    {
      "inputs": [],
      "name": "launchTime",
      "outputs": [
        {
          "internalType": "uint256",
          "name": "",
          "type": "uint256"
        }
      ],
      "stateMutability": "view",
      "type": "function"
    },
    {
      "inputs": [],
      "name": "maxtranscation",
      "outputs": [
        {
          "internalType": "uint256",
          "name": "",
          "type": "uint256"
        }
      ],
      "stateMutability": "view",
      "type": "function"
    },
    {
      "inputs": [],
      "name": "name",
      "outputs": [
        {
          "internalType": "string",
          "name": "",
          "type": "string"
        }
      ],
      "stateMutability": "view",
      "type": "function"
    },
    {
      "inputs": [],
      "name": "owner",
      "outputs": [
        {
          "internalType": "address",
          "name": "",
          "type": "address"
        }
      ],
      "stateMutability": "view",
      "type": "function"
    },
    {
      "inputs": [],
      "name": "pauseTrading",
      "outputs": [],
      "stateMutability": "nonpayable",
      "type": "function"
    },
    {
      "inputs": [],
      "name": "pinkAntiBot",
      "outputs": [
        {
          "internalType": "contract IPinkAntiBot",
          "name": "",
          "type": "address"
        }
      ],
      "stateMutability": "view",
      "type": "function"
    },
    {
      "inputs": [],
      "name": "pinkAntiBot_",
      "outputs": [
        {
          "internalType": "address",
          "name": "",
          "type": "address"
        }
      ],
      "stateMutability": "view",
      "type": "function"
    },
    {
      "inputs": [
        {
          "internalType": "address",
          "name": "tokenAddress",
          "type": "address"
        },
        {
          "internalType": "uint256",
          "name": "tokenAmount",
          "type": "uint256"
        }
      ],
      "name": "recoverothertokens",
      "outputs": [],
      "stateMutability": "nonpayable",
      "type": "function"
    },
    {
      "inputs": [
        {
          "internalType": "address payable",
          "name": "destination",
          "type": "address"
        }
      ],
      "name": "recovertoken",
      "outputs": [],
      "stateMutability": "nonpayable",
      "type": "function"
    },
    {
      "inputs": [],
      "name": "renounceOwnership",
      "outputs": [],
      "stateMutability": "nonpayable",
      "type": "function"
    },
    {
      "inputs": [],
      "name": "sellFee",
      "outputs": [
        {
          "internalType": "uint256",
          "name": "",
          "type": "uint256"
        }
      ],
      "stateMutability": "view",
      "type": "function"
    },
    {
      "inputs": [
        {
          "internalType": "address",
          "name": "",
          "type": "address"
        }
      ],
      "name": "sellingTotal",
      "outputs": [
        {
          "internalType": "uint256",
          "name": "",
          "type": "uint256"
        }
      ],
      "stateMutability": "view",
      "type": "function"
    },
    {
      "inputs": [
        {
          "internalType": "address",
          "name": "pair",
          "type": "address"
        },
        {
          "internalType": "bool",
          "name": "value",
          "type": "bool"
        }
      ],
      "name": "setAutomatedMarketMakerPair",
      "outputs": [],
      "stateMutability": "nonpayable",
      "type": "function"
    },
    {
      "inputs": [
        {
          "internalType": "bool",
          "name": "_enable",
          "type": "bool"
        }
      ],
      "name": "setEnableAntiBot",
      "outputs": [],
      "stateMutability": "nonpayable",
      "type": "function"
    },
    {
      "inputs": [
        {
          "internalType": "address",
          "name": "faddress",
          "type": "address"
        }
      ],
      "name": "setFirstverifier",
      "outputs": [],
      "stateMutability": "nonpayable",
      "type": "function"
    },
    {
      "inputs": [
        {
          "internalType": "uint256",
          "name": "interval",
          "type": "uint256"
        },
        {
          "internalType": "uint256",
          "name": "amount",
          "type": "uint256"
        }
      ],
      "name": "setantiDump",
      "outputs": [],
      "stateMutability": "nonpayable",
      "type": "function"
    },
    {
      "inputs": [
        {
          "internalType": "bool",
          "name": "nodumpamount",
          "type": "bool"
        }
      ],
      "name": "setantiDumpEnabled",
      "outputs": [],
      "stateMutability": "nonpayable",
      "type": "function"
    },
    {
      "inputs": [
        {
          "internalType": "uint256",
          "name": "value",
          "type": "uint256"
        }
      ],
      "name": "setbuyFee",
      "outputs": [],
      "stateMutability": "nonpayable",
      "type": "function"
    },
    {
      "inputs": [
        {
          "internalType": "bool",
          "name": "value",
          "type": "bool"
        }
      ],
      "name": "setfeeActive",
      "outputs": [],
      "stateMutability": "nonpayable",
      "type": "function"
    },
    {
      "inputs": [
        {
          "internalType": "address",
          "name": "feaddress",
          "type": "address"
        }
      ],
      "name": "setfeeWallet",
      "outputs": [],
      "stateMutability": "nonpayable",
      "type": "function"
    },
    {
      "inputs": [
        {
          "internalType": "uint256",
          "name": "value",
          "type": "uint256"
        }
      ],
      "name": "setmaxtranscation",
      "outputs": [],
      "stateMutability": "nonpayable",
      "type": "function"
    },
    {
      "inputs": [
        {
          "internalType": "uint256",
          "name": "value",
          "type": "uint256"
        }
      ],
      "name": "setsellFee",
      "outputs": [],
      "stateMutability": "nonpayable",
      "type": "function"
    },
    {
      "inputs": [],
      "name": "startTrading",
      "outputs": [],
      "stateMutability": "nonpayable",
      "type": "function"
    },
    {
      "inputs": [],
      "name": "symbol",
      "outputs": [
        {
          "internalType": "string",
          "name": "",
          "type": "string"
        }
      ],
      "stateMutability": "view",
      "type": "function"
    },
    {
      "inputs": [],
      "name": "totalSupply",
      "outputs": [
        {
          "internalType": "uint256",
          "name": "",
          "type": "uint256"
        }
      ],
      "stateMutability": "view",
      "type": "function"
    },
    {
      "inputs": [],
      "name": "tradingEnabled",
      "outputs": [
        {
          "internalType": "bool",
          "name": "",
          "type": "bool"
        }
      ],
      "stateMutability": "view",
      "type": "function"
    },
    {
      "inputs": [
        {
          "internalType": "address",
          "name": "recipient",
          "type": "address"
        },
        {
          "internalType": "uint256",
          "name": "amount",
          "type": "uint256"
        }
      ],
      "name": "transfer",
      "outputs": [
        {
          "internalType": "bool",
          "name": "",
          "type": "bool"
        }
      ],
      "stateMutability": "nonpayable",
      "type": "function"
    },
    {
      "inputs": [
        {
          "internalType": "address",
          "name": "sender",
          "type": "address"
        },
        {
          "internalType": "address",
          "name": "recipient",
          "type": "address"
        },
        {
          "internalType": "uint256",
          "name": "amount",
          "type": "uint256"
        }
      ],
      "name": "transferFrom",
      "outputs": [
        {
          "internalType": "bool",
          "name": "",
          "type": "bool"
        }
      ],
      "stateMutability": "nonpayable",
      "type": "function"
    },
    {
      "inputs": [
        {
          "internalType": "address",
          "name": "newOwner",
          "type": "address"
        }
      ],
      "name": "transferOwnership",
      "outputs": [],
      "stateMutability": "nonpayable",
      "type": "function"
    },
    {
      "inputs": [],
      "name": "uniswapV2Pair",
      "outputs": [
        {
          "internalType": "address",
          "name": "",
          "type": "address"
        }
      ],
      "stateMutability": "view",
      "type": "function"
    },
    {
      "inputs": [],
      "name": "uniswapV2Router",
      "outputs": [
        {
          "internalType": "contract IUniswapV2Router02",
          "name": "",
          "type": "address"
        }
      ],
      "stateMutability": "view",
      "type": "function"
    },
    {
      "inputs": [],
      "name": "uniswapV2Router02_",
      "outputs": [
        {
          "internalType": "address",
          "name": "",
          "type": "address"
        }
      ],
      "stateMutability": "view",
      "type": "function"
    },
    {
      "inputs": [
        {
          "internalType": "address",
          "name": "newAddress",
          "type": "address"
        }
      ],
      "name": "updateUniswapV2Router",
      "outputs": [],
      "stateMutability": "nonpayable",
      "type": "function"
    },
    {
      "inputs": [],
      "name": "verifierOne",
      "outputs": [
        {
          "internalType": "bool",
          "name": "",
          "type": "bool"
        }
      ],
      "stateMutability": "view",
      "type": "function"
    },
    {
      "inputs": [],
      "name": "verifierOwner",
      "outputs": [
        {
          "internalType": "bool",
          "name": "",
          "type": "bool"
        }
      ],
      "stateMutability": "view",
      "type": "function"
    },
    {
      "inputs": [
        {
          "internalType": "bool",
          "name": "voteverifier",
          "type": "bool"
        }
      ],
      "name": "voteVerifierOne",
      "outputs": [],
      "stateMutability": "nonpayable",
      "type": "function"
    },
    {
      "inputs": [
        {
          "internalType": "bool",
          "name": "voteverifier",
          "type": "bool"
        }
      ],
      "name": "voteVerifierOwner",
      "outputs": [],
      "stateMutability": "nonpayable",
      "type": "function"
    },
    {
      "stateMutability": "payable",
      "type": "receive"
    }
  ],
  "bytecode": "0x60806040526001600760146101000a81548160ff021916908315150217905550670de0b6b3a764000060095561dead600a60006101000a81548173ffffffffffffffffffffffffffffffffffffffff021916908373ffffffffffffffffffffffffffffffffffffffff1602179055506000600d55600c600e556611c37937e08000600f556000601060016101000a81548160ff0219169083151502179055506000601060026101000a81548160ff0219169083151502179055506000601060036101000a81548160ff0219169083151502179055507346d3099487ddcf724df70ed11b40109dab586f79601060046101000a81548173ffffffffffffffffffffffffffffffffffffffff021916908373ffffffffffffffffffffffffffffffffffffffff16021790555073bb06f5c7689ea93d9deaccf4af8546c4fe0bf1e5601160006101000a81548173ffffffffffffffffffffffffffffffffffffffff021916908373ffffffffffffffffffffffffffffffffffffffff160217905550739ac64cc6e4415144c455bd8e4837fea55603e5c3601260006101000a81548173ffffffffffffffffffffffffffffffffffffffff021916908373ffffffffffffffffffffffffffffffffffffffff1602179055507346d3099487ddcf724df70ed11b40109dab586f79601360006101000a81548173ffffffffffffffffffffffffffffffffffffffff021916908373ffffffffffffffffffffffffffffffffffffffff160217905550610258601855620002666127106200025260056009546200074e60201b62002f8a1790919060201c565b620007d160201b620030041790919060201c565b6019553480156200027657600080fd5b506040518060400160405280600981526020017f41786c65546f6b656e00000000000000000000000000000000000000000000008152506040518060400160405280600481526020017f41584c45000000000000000000000000000000000000000000000000000000008152508160039081620002f4919062001065565b50806004908162000306919062001065565b50505060006200031b6200082360201b60201c565b905080600560006101000a81548173ffffffffffffffffffffffffffffffffffffffff021916908373ffffffffffffffffffffffffffffffffffffffff1602179055508073ffffffffffffffffffffffffffffffffffffffff16600073ffffffffffffffffffffffffffffffffffffffff167f8be0079c531659141344cd1fd0a4f28419497f9722a3daafe3b4186f6b6457e060405160405180910390a3506000601260009054906101000a900473ffffffffffffffffffffffffffffffffffffffff16905060008173ffffffffffffffffffffffffffffffffffffffff1663c45a01556040518163ffffffff1660e01b8152600401602060405180830381865afa1580156200042f573d6000803e3d6000fd5b505050506040513d601f19601f82011682018060405250810190620004559190620011b6565b73ffffffffffffffffffffffffffffffffffffffff1663c9c65396308473ffffffffffffffffffffffffffffffffffffffff1663ad5c46486040518163ffffffff1660e01b8152600401602060405180830381865afa158015620004bd573d6000803e3d6000fd5b505050506040513d601f19601f82011682018060405250810190620004e39190620011b6565b6040518363ffffffff1660e01b815260040162000502929190620011f9565b6020604051808303816000875af115801562000522573d6000803e3d6000fd5b505050506040513d601f19601f82011682018060405250810190620005489190620011b6565b905081600660006101000a81548173ffffffffffffffffffffffffffffffffffffffff021916908373ffffffffffffffffffffffffffffffffffffffff16021790555080600760006101000a81548173ffffffffffffffffffffffffffffffffffffffff021916908373ffffffffffffffffffffffffffffffffffffffff160217905550620005df8160016200082b60201b60201c565b601160009054906101000a900473ffffffffffffffffffffffffffffffffffffffff16600c60006101000a81548173ffffffffffffffffffffffffffffffffffffffff021916908373ffffffffffffffffffffffffffffffffffffffff160217905550600c60009054906101000a900473ffffffffffffffffffffffffffffffffffffffff1673ffffffffffffffffffffffffffffffffffffffff166318e02bd9336040518263ffffffff1660e01b81526004016200069f919062001226565b600060405180830381600087803b158015620006ba57600080fd5b505af1158015620006cf573d6000803e3d6000fd5b505050506001601060006101000a81548160ff02191690831515021790555062000710620007026200096160201b60201c565b60016200098b60201b60201c565b620007233060016200098b60201b60201c565b62000746620007376200096160201b60201c565b60095462000b6d60201b60201c565b5050620017be565b6000808303620007625760009050620007cb565b6000828462000772919062001272565b9050828482620007839190620012ec565b14620007c6576040517f08c379a0000000000000000000000000000000000000000000000000000000008152600401620007bd90620013ab565b60405180910390fd5b809150505b92915050565b60006200081b83836040518060400160405280601a81526020017f536166654d6174683a206469766973696f6e206279207a65726f00000000000081525062000d1b60201b60201c565b905092915050565b600033905090565b801515601a60008473ffffffffffffffffffffffffffffffffffffffff1673ffffffffffffffffffffffffffffffffffffffff16815260200190815260200160002060009054906101000a900460ff16151503620008c0576040517f08c379a0000000000000000000000000000000000000000000000000000000008152600401620008b79062001469565b60405180910390fd5b80601a60008473ffffffffffffffffffffffffffffffffffffffff1673ffffffffffffffffffffffffffffffffffffffff16815260200190815260200160002060006101000a81548160ff0219169083151502179055508015158273ffffffffffffffffffffffffffffffffffffffff167fffa9187bf1f18bf477bd0ea1bcbb64e93b6a98132473929edfce215cd9b16fab60405160405180910390a35050565b6000600560009054906101000a900473ffffffffffffffffffffffffffffffffffffffff16905090565b6200099b6200082360201b60201c565b73ffffffffffffffffffffffffffffffffffffffff16600560009054906101000a900473ffffffffffffffffffffffffffffffffffffffff1673ffffffffffffffffffffffffffffffffffffffff161462000a2d576040517f08c379a000000000000000000000000000000000000000000000000000000000815260040162000a2490620014db565b60405180910390fd5b801515601460008473ffffffffffffffffffffffffffffffffffffffff1673ffffffffffffffffffffffffffffffffffffffff16815260200190815260200160002060009054906101000a900460ff1615150362000ac2576040517f08c379a000000000000000000000000000000000000000000000000000000000815260040162000ab99062001573565b60405180910390fd5b80601460008473ffffffffffffffffffffffffffffffffffffffff1673ffffffffffffffffffffffffffffffffffffffff16815260200190815260200160002060006101000a81548160ff0219169083151502179055508173ffffffffffffffffffffffffffffffffffffffff167f9d8f7706ea1113d1a167b526eca956215946dd36cc7df39eb16180222d8b5df78260405162000b619190620015b2565b60405180910390a25050565b600073ffffffffffffffffffffffffffffffffffffffff168273ffffffffffffffffffffffffffffffffffffffff160362000bdf576040517f08c379a000000000000000000000000000000000000000000000000000000000815260040162000bd6906200161f565b60405180910390fd5b62000bf36000838362000d8360201b60201c565b62000c0f8160025462000d8860201b6200304e1790919060201c565b60028190555062000c6d816000808573ffffffffffffffffffffffffffffffffffffffff1673ffffffffffffffffffffffffffffffffffffffff1681526020019081526020016000205462000d8860201b6200304e1790919060201c565b6000808473ffffffffffffffffffffffffffffffffffffffff1673ffffffffffffffffffffffffffffffffffffffff168152602001908152602001600020819055508173ffffffffffffffffffffffffffffffffffffffff16600073ffffffffffffffffffffffffffffffffffffffff167fddf252ad1be2c89b69c2b068fc378daa952ba7f163c4a11628f55a4df523b3ef8360405162000d0f919062001652565b60405180910390a35050565b6000808311829062000d65576040517f08c379a000000000000000000000000000000000000000000000000000000000815260040162000d5c9190620016ed565b60405180910390fd5b506000838562000d769190620012ec565b9050809150509392505050565b505050565b600080828462000d99919062001711565b90508381101562000de1576040517f08c379a000000000000000000000000000000000000000000000000000000000815260040162000dd8906200179c565b60405180910390fd5b8091505092915050565b600081519050919050565b7f4e487b7100000000000000000000000000000000000000000000000000000000600052604160045260246000fd5b7f4e487b7100000000000000000000000000000000000000000000000000000000600052602260045260246000fd5b6000600282049050600182168062000e6d57607f821691505b60208210810362000e835762000e8262000e25565b5b50919050565b60008190508160005260206000209050919050565b60006020601f8301049050919050565b600082821b905092915050565b60006008830262000eed7fffffffffffffffffffffffffffffffffffffffffffffffffffffffffffffffff8262000eae565b62000ef9868362000eae565b95508019841693508086168417925050509392505050565b6000819050919050565b6000819050919050565b600062000f4662000f4062000f3a8462000f11565b62000f1b565b62000f11565b9050919050565b6000819050919050565b62000f628362000f25565b62000f7a62000f718262000f4d565b84845462000ebb565b825550505050565b600090565b62000f9162000f82565b62000f9e81848462000f57565b505050565b5b8181101562000fc65762000fba60008262000f87565b60018101905062000fa4565b5050565b601f821115620010155762000fdf8162000e89565b62000fea8462000e9e565b8101602085101562000ffa578190505b62001012620010098562000e9e565b83018262000fa3565b50505b505050565b600082821c905092915050565b60006200103a600019846008026200101a565b1980831691505092915050565b600062001055838362001027565b9150826002028217905092915050565b620010708262000deb565b67ffffffffffffffff8111156200108c576200108b62000df6565b5b62001098825462000e54565b620010a582828562000fca565b600060209050601f831160018114620010dd5760008415620010c8578287015190505b620010d4858262001047565b86555062001144565b601f198416620010ed8662000e89565b60005b828110156200111757848901518255600182019150602085019450602081019050620010f0565b8683101562001137578489015162001133601f89168262001027565b8355505b6001600288020188555050505b505050505050565b600080fd5b600073ffffffffffffffffffffffffffffffffffffffff82169050919050565b60006200117e8262001151565b9050919050565b620011908162001171565b81146200119c57600080fd5b50565b600081519050620011b08162001185565b92915050565b600060208284031215620011cf57620011ce6200114c565b5b6000620011df848285016200119f565b91505092915050565b620011f38162001171565b82525050565b6000604082019050620012106000830185620011e8565b6200121f6020830184620011e8565b9392505050565b60006020820190506200123d6000830184620011e8565b92915050565b7f4e487b7100000000000000000000000000000000000000000000000000000000600052601160045260246000fd5b60006200127f8262000f11565b91506200128c8362000f11565b92508282026200129c8162000f11565b91508282048414831517620012b657620012b562001243565b5b5092915050565b7f4e487b7100000000000000000000000000000000000000000000000000000000600052601260045260246000fd5b6000620012f98262000f11565b9150620013068362000f11565b925082620013195762001318620012bd565b5b828204905092915050565b600082825260208201905092915050565b7f536166654d6174683a206d756c7469706c69636174696f6e206f766572666c6f60008201527f7700000000000000000000000000000000000000000000000000000000000000602082015250565b60006200139360218362001324565b9150620013a08262001335565b604082019050919050565b60006020820190508181036000830152620013c68162001384565b9050919050565b7f41786c6547616d65733a204175746f6d61746564206d61726b6574206d616b6560008201527f72207061697220697320616c72656164792073657420746f207468617420766160208201527f6c75650000000000000000000000000000000000000000000000000000000000604082015250565b60006200145160438362001324565b91506200145e82620013cd565b606082019050919050565b60006020820190508181036000830152620014848162001442565b9050919050565b7f4f776e61626c653a2063616c6c6572206973206e6f7420746865206f776e6572600082015250565b6000620014c360208362001324565b9150620014d0826200148b565b602082019050919050565b60006020820190508181036000830152620014f681620014b4565b9050919050565b7f41786c6547616d65733a204163636f756e7420697320616c726561647920746860008201527f652076616c7565206f6620276578636c75646564270000000000000000000000602082015250565b60006200155b60358362001324565b91506200156882620014fd565b604082019050919050565b600060208201905081810360008301526200158e816200154c565b9050919050565b60008115159050919050565b620015ac8162001595565b82525050565b6000602082019050620015c96000830184620015a1565b92915050565b7f45524332303a206d696e7420746f20746865207a65726f206164647265737300600082015250565b600062001607601f8362001324565b91506200161482620015cf565b602082019050919050565b600060208201905081810360008301526200163a81620015f8565b9050919050565b6200164c8162000f11565b82525050565b600060208201905062001669600083018462001641565b92915050565b60005b838110156200168f57808201518184015260208101905062001672565b60008484015250505050565b6000601f19601f8301169050919050565b6000620016b98262000deb565b620016c5818562001324565b9350620016d78185602086016200166f565b620016e2816200169b565b840191505092915050565b60006020820190508181036000830152620017098184620016ac565b905092915050565b60006200171e8262000f11565b91506200172b8362000f11565b925082820190508082111562001746576200174562001243565b5b92915050565b7f536166654d6174683a206164646974696f6e206f766572666c6f770000000000600082015250565b600062001784601b8362001324565b915062001791826200174c565b602082019050919050565b60006020820190508181036000830152620017b78162001775565b9050919050565b61581b80620017ce6000396000f3fe60806040526004361061038f5760003560e01c806370a08231116101dc578063a6e30b6911610102578063d8c6404b116100a0578063f121275f1161006f578063f121275f14610d66578063f25f4b5614610d8f578063f2fde38b14610dba578063f40a115014610de357610396565b8063d8c6404b14610ca8578063dcccac7e14610cd3578063dd62ed3e14610cfe578063ebc77bfb14610d3b57610396565b8063c0246668116100dc578063c024666814610c04578063c1a63c0214610c2d578063c492f04614610c56578063cc462bb914610c7f57610396565b8063a6e30b6914610b61578063a9059cbb14610b8a578063b62496f514610bc757610396565b806394c023ee1161017a57806399c20a3e1161014957806399c20a3e14610a935780639a7a23d614610ad05780639c7a91fe14610af9578063a457c2d714610b2457610396565b806394c023ee146109ed57806395d89b4114610a165780639766135914610a4157806397d66f8014610a6a57610396565b80637cbadcd2116101b65780637cbadcd2146109415780637f8810bf1461096c57806385141a77146109975780638da5cb5b146109c257610396565b806370a08231146108c2578063715018a6146108ff578063790ca4131461091657610396565b8063313ce567116102c157806349bd5a5e1161025f57806360763df41161022e57806360763df414610808578063623badb11461084557806365b8dbc01461087057806368c1e14c1461089957610396565b806349bd5a5e1461074c5780634ada218b146107775780634fbee193146107a2578063517cb253146107df57610396565b8063407133d21161029b578063407133d214610690578063455a4396146106bb5780634568942e146106e4578063470624021461072157610396565b8063313ce567146105fd578063395093511461062857806339b1ee931461066557610396565b80631a9aeb661161032e57806323b872dd1161030857806323b872dd14610555578063293230b8146105925780632b14ca56146105a95780632b156698146105d457610396565b80631a9aeb66146104c45780631cdd3be3146104ef5780631f46b1c61461052c57610396565b8063095ea7b31161036a578063095ea7b31461041a5780631031e36e146104575780631694505e1461046e57806318160ddd1461049957610396565b80625abb001461039b5780630459a91e146103c457806306fdde03146103ef57610396565b3661039657005b600080fd5b3480156103a757600080fd5b506103c260048036038101906103bd91906141dd565b610e0c565b005b3480156103d057600080fd5b506103d9610ec0565b6040516103e6919061424b565b60405180910390f35b3480156103fb57600080fd5b50610404610ee6565b60405161041191906142f6565b60405180910390f35b34801561042657600080fd5b50610441600480360381019061043c919061437a565b610f78565b60405161044e91906143c9565b60405180910390f35b34801561046357600080fd5b5061046c610f96565b005b34801561047a57600080fd5b50610483611052565b6040516104909190614443565b60405180910390f35b3480156104a557600080fd5b506104ae611078565b6040516104bb919061446d565b60405180910390f35b3480156104d057600080fd5b506104d9611082565b6040516104e6919061446d565b60405180910390f35b3480156104fb57600080fd5b5061051660048036038101906105119190614488565b611088565b60405161052391906143c9565b60405180910390f35b34801561053857600080fd5b50610553600480360381019061054e91906141dd565b6110a8565b005b34801561056157600080fd5b5061057c600480360381019061057791906144b5565b61115c565b60405161058991906143c9565b60405180910390f35b34801561059e57600080fd5b506105a7611235565b005b3480156105b557600080fd5b506105be611335565b6040516105cb919061446d565b60405180910390f35b3480156105e057600080fd5b506105fb60048036038101906105f691906141dd565b61133b565b005b34801561060957600080fd5b506106126113ef565b60405161061f9190614524565b60405180910390f35b34801561063457600080fd5b5061064f600480360381019061064a919061437a565b6113f8565b60405161065c91906143c9565b60405180910390f35b34801561067157600080fd5b5061067a6114ab565b60405161068791906143c9565b60405180910390f35b34801561069c57600080fd5b506106a56114be565b6040516106b29190614560565b60405180910390f35b3480156106c757600080fd5b506106e260048036038101906106dd919061457b565b6114e4565b005b3480156106f057600080fd5b5061070b60048036038101906107069190614488565b6115d6565b604051610718919061446d565b60405180910390f35b34801561072d57600080fd5b506107366115ee565b604051610743919061446d565b60405180910390f35b34801561075857600080fd5b506107616115f4565b60405161076e919061424b565b60405180910390f35b34801561078357600080fd5b5061078c61161a565b60405161079991906143c9565b60405180910390f35b3480156107ae57600080fd5b506107c960048036038101906107c49190614488565b61162d565b6040516107d691906143c9565b60405180910390f35b3480156107eb57600080fd5b50610806600480360381019061080191906145bb565b611683565b005b34801561081457600080fd5b5061082f600480360381019061082a9190614488565b611724565b60405161083c919061446d565b60405180910390f35b34801561085157600080fd5b5061085a61173c565b60405161086791906143c9565b60405180910390f35b34801561087c57600080fd5b5061089760048036038101906108929190614488565b61174f565b005b3480156108a557600080fd5b506108c060048036038101906108bb9190614488565b611b89565b005b3480156108ce57600080fd5b506108e960048036038101906108e49190614488565b611c64565b6040516108f6919061446d565b60405180910390f35b34801561090b57600080fd5b50610914611cac565b005b34801561092257600080fd5b5061092b611e04565b604051610938919061446d565b60405180910390f35b34801561094d57600080fd5b50610956611e0a565b60405161096391906143c9565b60405180910390f35b34801561097857600080fd5b50610981611e1d565b60405161098e919061424b565b60405180910390f35b3480156109a357600080fd5b506109ac611e43565b6040516109b9919061424b565b60405180910390f35b3480156109ce57600080fd5b506109d7611e69565b6040516109e4919061424b565b60405180910390f35b3480156109f957600080fd5b50610a146004803603810190610a0f91906141dd565b611e93565b005b348015610a2257600080fd5b50610a2b611f47565b604051610a3891906142f6565b60405180910390f35b348015610a4d57600080fd5b50610a686004803603810190610a639190614488565b611fd9565b005b348015610a7657600080fd5b50610a916004803603810190610a8c9190614626565b6121b3565b005b348015610a9f57600080fd5b50610aba6004803603810190610ab59190614488565b612303565b604051610ac7919061446d565b60405180910390f35b348015610adc57600080fd5b50610af76004803603810190610af2919061457b565b61231b565b005b348015610b0557600080fd5b50610b0e612450565b604051610b1b919061446d565b60405180910390f35b348015610b3057600080fd5b50610b4b6004803603810190610b46919061437a565b612456565b604051610b5891906143c9565b60405180910390f35b348015610b6d57600080fd5b50610b886004803603810190610b8391906145bb565b612523565b005b348015610b9657600080fd5b50610bb16004803603810190610bac919061437a565b6125c4565b604051610bbe91906143c9565b60405180910390f35b348015610bd357600080fd5b50610bee6004803603810190610be99190614488565b6125e2565b604051610bfb91906143c9565b60405180910390f35b348015610c1057600080fd5b50610c2b6004803603810190610c26919061457b565b612602565b005b348015610c3957600080fd5b50610c546004803603810190610c4f91906145bb565b6127d4565b005b348015610c6257600080fd5b50610c7d6004803603810190610c7891906146b8565b612875565b005b348015610c8b57600080fd5b50610ca66004803603810190610ca19190614718565b6129ec565b005b348015610cb457600080fd5b50610cbd612a95565b604051610cca91906143c9565b60405180910390f35b348015610cdf57600080fd5b50610ce8612aa8565b604051610cf5919061424b565b60405180910390f35b348015610d0a57600080fd5b50610d256004803603810190610d209190614758565b612ace565b604051610d32919061446d565b60405180910390f35b348015610d4757600080fd5b50610d50612b55565b604051610d5d919061446d565b60405180910390f35b348015610d7257600080fd5b50610d8d6004803603810190610d88919061437a565b612b5b565b005b348015610d9b57600080fd5b50610da4612cea565b604051610db1919061424b565b60405180910390f35b348015610dc657600080fd5b50610de16004803603810190610ddc9190614488565b612d10565b005b348015610def57600080fd5b50610e0a6004803603810190610e0591906141dd565b612ed6565b005b610e146130ac565b73ffffffffffffffffffffffffffffffffffffffff16600560009054906101000a900473ffffffffffffffffffffffffffffffffffffffff1673ffffffffffffffffffffffffffffffffffffffff1614610ea3576040517f08c379a0000000000000000000000000000000000000000000000000000000008152600401610e9a906147e4565b60405180910390fd5b80600760146101000a81548160ff02191690831515021790555050565b601160009054906101000a900473ffffffffffffffffffffffffffffffffffffffff1681565b606060038054610ef590614833565b80601f0160208091040260200160405190810160405280929190818152602001828054610f2190614833565b8015610f6e5780601f10610f4357610100808354040283529160200191610f6e565b820191906000526020600020905b815481529060010190602001808311610f5157829003601f168201915b5050505050905090565b6000610f8c610f856130ac565b84846130b4565b6001905092915050565b610f9e6130ac565b73ffffffffffffffffffffffffffffffffffffffff16600560009054906101000a900473ffffffffffffffffffffffffffffffffffffffff1673ffffffffffffffffffffffffffffffffffffffff161461102d576040517f08c379a0000000000000000000000000000000000000000000000000000000008152600401611024906147e4565b60405180910390fd5b60006008819055506000600760156101000a81548160ff021916908315150217905550565b600660009054906101000a900473ffffffffffffffffffffffffffffffffffffffff1681565b6000600254905090565b600f5481565b600b6020528060005260406000206000915054906101000a900460ff1681565b6110b06130ac565b73ffffffffffffffffffffffffffffffffffffffff16600560009054906101000a900473ffffffffffffffffffffffffffffffffffffffff1673ffffffffffffffffffffffffffffffffffffffff161461113f576040517f08c379a0000000000000000000000000000000000000000000000000000000008152600401611136906147e4565b60405180910390fd5b80601060006101000a81548160ff02191690831515021790555050565b600061116984848461327d565b61122a846111756130ac565b6112258560405180606001604052806028815260200161579960289139600160008b73ffffffffffffffffffffffffffffffffffffffff1673ffffffffffffffffffffffffffffffffffffffff16815260200190815260200160002060006111db6130ac565b73ffffffffffffffffffffffffffffffffffffffff1673ffffffffffffffffffffffffffffffffffffffff16815260200190815260200160002054613cbf9092919063ffffffff16565b6130b4565b600190509392505050565b61123d6130ac565b73ffffffffffffffffffffffffffffffffffffffff16600560009054906101000a900473ffffffffffffffffffffffffffffffffffffffff1673ffffffffffffffffffffffffffffffffffffffff16146112cc576040517f08c379a00000000000000000000000000000000000000000000000000000000081526004016112c3906147e4565b60405180910390fd5b600060085414611311576040517f08c379a0000000000000000000000000000000000000000000000000000000008152600401611308906148b0565b60405180910390fd5b426008819055506001600760156101000a81548160ff021916908315150217905550565b600e5481565b6113436130ac565b73ffffffffffffffffffffffffffffffffffffffff16600560009054906101000a900473ffffffffffffffffffffffffffffffffffffffff1673ffffffffffffffffffffffffffffffffffffffff16146113d2576040517f08c379a00000000000000000000000000000000000000000000000000000000081526004016113c9906147e4565b60405180910390fd5b80601060016101000a81548160ff02191690831515021790555050565b60006009905090565b60006114a16114056130ac565b8461149c85600160006114166130ac565b73ffffffffffffffffffffffffffffffffffffffff1673ffffffffffffffffffffffffffffffffffffffff16815260200190815260200160002060008973ffffffffffffffffffffffffffffffffffffffff1673ffffffffffffffffffffffffffffffffffffffff1681526020019081526020016000205461304e90919063ffffffff16565b6130b4565b6001905092915050565b601060029054906101000a900460ff1681565b600c60009054906101000a900473ffffffffffffffffffffffffffffffffffffffff1681565b6114ec6130ac565b73ffffffffffffffffffffffffffffffffffffffff16600560009054906101000a900473ffffffffffffffffffffffffffffffffffffffff1673ffffffffffffffffffffffffffffffffffffffff161461157b576040517f08c379a0000000000000000000000000000000000000000000000000000000008152600401611572906147e4565b60405180910390fd5b80600b60008473ffffffffffffffffffffffffffffffffffffffff1673ffffffffffffffffffffffffffffffffffffffff16815260200190815260200160002060006101000a81548160ff0219169083151502179055505050565b60176020528060005260406000206000915090505481565b600d5481565b600760009054906101000a900473ffffffffffffffffffffffffffffffffffffffff1681565b600760159054906101000a900460ff1681565b6000601460008373ffffffffffffffffffffffffffffffffffffffff1673ffffffffffffffffffffffffffffffffffffffff16815260200190815260200160002060009054906101000a900460ff169050919050565b61168b6130ac565b73ffffffffffffffffffffffffffffffffffffffff16600560009054906101000a900473ffffffffffffffffffffffffffffffffffffffff1673ffffffffffffffffffffffffffffffffffffffff161461171a576040517f08c379a0000000000000000000000000000000000000000000000000000000008152600401611711906147e4565b60405180910390fd5b80600f8190555050565b60166020528060005260406000206000915090505481565b601060039054906101000a900460ff1681565b6117576130ac565b73ffffffffffffffffffffffffffffffffffffffff16600560009054906101000a900473ffffffffffffffffffffffffffffffffffffffff1673ffffffffffffffffffffffffffffffffffffffff16146117e6576040517f08c379a00000000000000000000000000000000000000000000000000000000081526004016117dd906147e4565b60405180910390fd5b600660009054906101000a900473ffffffffffffffffffffffffffffffffffffffff1673ffffffffffffffffffffffffffffffffffffffff168173ffffffffffffffffffffffffffffffffffffffff1603611876576040517f08c379a000000000000000000000000000000000000000000000000000000000815260040161186d90614942565b60405180910390fd5b600073ffffffffffffffffffffffffffffffffffffffff168173ffffffffffffffffffffffffffffffffffffffff16036118e5576040517f08c379a00000000000000000000000000000000000000000000000000000000081526004016118dc906149ae565b60405180910390fd5b600660009054906101000a900473ffffffffffffffffffffffffffffffffffffffff1673ffffffffffffffffffffffffffffffffffffffff168173ffffffffffffffffffffffffffffffffffffffff167f8fc842bbd331dfa973645f4ed48b11683d501ebf1352708d77a5da2ab49a576e60405160405180910390a380600660006101000a81548173ffffffffffffffffffffffffffffffffffffffff021916908373ffffffffffffffffffffffffffffffffffffffff1602179055506000600660009054906101000a900473ffffffffffffffffffffffffffffffffffffffff1673ffffffffffffffffffffffffffffffffffffffff1663c45a01556040518163ffffffff1660e01b8152600401602060405180830381865afa158015611a11573d6000803e3d6000fd5b505050506040513d601f19601f82011682018060405250810190611a3591906149e3565b73ffffffffffffffffffffffffffffffffffffffff1663c9c6539630600660009054906101000a900473ffffffffffffffffffffffffffffffffffffffff1673ffffffffffffffffffffffffffffffffffffffff1663ad5c46486040518163ffffffff1660e01b8152600401602060405180830381865afa158015611abe573d6000803e3d6000fd5b505050506040513d601f19601f82011682018060405250810190611ae291906149e3565b6040518363ffffffff1660e01b8152600401611aff929190614a10565b6020604051808303816000875af1158015611b1e573d6000803e3d6000fd5b505050506040513d601f19601f82011682018060405250810190611b4291906149e3565b905080600760006101000a81548173ffffffffffffffffffffffffffffffffffffffff021916908373ffffffffffffffffffffffffffffffffffffffff1602179055505050565b611b916130ac565b73ffffffffffffffffffffffffffffffffffffffff16600560009054906101000a900473ffffffffffffffffffffffffffffffffffffffff1673ffffffffffffffffffffffffffffffffffffffff1614611c20576040517f08c379a0000000000000000000000000000000000000000000000000000000008152600401611c17906147e4565b60405180910390fd5b80601060046101000a81548173ffffffffffffffffffffffffffffffffffffffff021916908373ffffffffffffffffffffffffffffffffffffffff16021790555050565b60008060008373ffffffffffffffffffffffffffffffffffffffff1673ffffffffffffffffffffffffffffffffffffffff168152602001908152602001600020549050919050565b611cb46130ac565b73ffffffffffffffffffffffffffffffffffffffff16600560009054906101000a900473ffffffffffffffffffffffffffffffffffffffff1673ffffffffffffffffffffffffffffffffffffffff1614611d43576040517f08c379a0000000000000000000000000000000000000000000000000000000008152600401611d3a906147e4565b60405180910390fd5b600073ffffffffffffffffffffffffffffffffffffffff16600560009054906101000a900473ffffffffffffffffffffffffffffffffffffffff1673ffffffffffffffffffffffffffffffffffffffff167f8be0079c531659141344cd1fd0a4f28419497f9722a3daafe3b4186f6b6457e060405160405180910390a36000600560006101000a81548173ffffffffffffffffffffffffffffffffffffffff021916908373ffffffffffffffffffffffffffffffffffffffff160217905550565b60085481565b601060019054906101000a900460ff1681565b601360009054906101000a900473ffffffffffffffffffffffffffffffffffffffff1681565b600a60009054906101000a900473ffffffffffffffffffffffffffffffffffffffff1681565b6000600560009054906101000a900473ffffffffffffffffffffffffffffffffffffffff16905090565b601360009054906101000a900473ffffffffffffffffffffffffffffffffffffffff1673ffffffffffffffffffffffffffffffffffffffff16611ed46130ac565b73ffffffffffffffffffffffffffffffffffffffff1614611f2a576040517f08c379a0000000000000000000000000000000000000000000000000000000008152600401611f2190614aab565b60405180910390fd5b80601060026101000a81548160ff02191690831515021790555050565b606060048054611f5690614833565b80601f0160208091040260200160405190810160405280929190818152602001828054611f8290614833565b8015611fcf5780601f10611fa457610100808354040283529160200191611fcf565b820191906000526020600020905b815481529060010190602001808311611fb257829003601f168201915b5050505050905090565b611fe16130ac565b73ffffffffffffffffffffffffffffffffffffffff16600560009054906101000a900473ffffffffffffffffffffffffffffffffffffffff1673ffffffffffffffffffffffffffffffffffffffff1614612070576040517f08c379a0000000000000000000000000000000000000000000000000000000008152600401612067906147e4565b60405180910390fd5b600073ffffffffffffffffffffffffffffffffffffffff168173ffffffffffffffffffffffffffffffffffffffff16036120df576040517f08c379a00000000000000000000000000000000000000000000000000000000081526004016120d690614b3d565b60405180910390fd5b60011515601060029054906101000a900460ff161515148015612115575060011515601060039054906101000a900460ff161515145b612154576040517f08c379a000000000000000000000000000000000000000000000000000000000815260040161214b90614ba9565b60405180910390fd5b80601360006101000a81548173ffffffffffffffffffffffffffffffffffffffff021916908373ffffffffffffffffffffffffffffffffffffffff1602179055506000601060026101000a81548160ff02191690831515021790555050565b6121bb6130ac565b73ffffffffffffffffffffffffffffffffffffffff16600560009054906101000a900473ffffffffffffffffffffffffffffffffffffffff1673ffffffffffffffffffffffffffffffffffffffff161461224a576040517f08c379a0000000000000000000000000000000000000000000000000000000008152600401612241906147e4565b60405180910390fd5b600073ffffffffffffffffffffffffffffffffffffffff168173ffffffffffffffffffffffffffffffffffffffff16036122b9576040517f08c379a00000000000000000000000000000000000000000000000000000000081526004016122b090614c15565b60405180910390fd5b8073ffffffffffffffffffffffffffffffffffffffff166108fc479081150290604051600060405180830381858888f193505050501580156122ff573d6000803e3d6000fd5b5050565b60156020528060005260406000206000915090505481565b6123236130ac565b73ffffffffffffffffffffffffffffffffffffffff16600560009054906101000a900473ffffffffffffffffffffffffffffffffffffffff1673ffffffffffffffffffffffffffffffffffffffff16146123b2576040517f08c379a00000000000000000000000000000000000000000000000000000000081526004016123a9906147e4565b60405180910390fd5b600760009054906101000a900473ffffffffffffffffffffffffffffffffffffffff1673ffffffffffffffffffffffffffffffffffffffff168273ffffffffffffffffffffffffffffffffffffffff1603612442576040517f08c379a000000000000000000000000000000000000000000000000000000000815260040161243990614ccd565b60405180910390fd5b61244c8282613d23565b5050565b60185481565b60006125196124636130ac565b84612514856040518060600160405280602581526020016157c1602591396001600061248d6130ac565b73ffffffffffffffffffffffffffffffffffffffff1673ffffffffffffffffffffffffffffffffffffffff16815260200190815260200160002060008a73ffffffffffffffffffffffffffffffffffffffff1673ffffffffffffffffffffffffffffffffffffffff16815260200190815260200160002054613cbf9092919063ffffffff16565b6130b4565b6001905092915050565b61252b6130ac565b73ffffffffffffffffffffffffffffffffffffffff16600560009054906101000a900473ffffffffffffffffffffffffffffffffffffffff1673ffffffffffffffffffffffffffffffffffffffff16146125ba576040517f08c379a00000000000000000000000000000000000000000000000000000000081526004016125b1906147e4565b60405180910390fd5b80600d8190555050565b60006125d86125d16130ac565b848461327d565b6001905092915050565b601a6020528060005260406000206000915054906101000a900460ff1681565b61260a6130ac565b73ffffffffffffffffffffffffffffffffffffffff16600560009054906101000a900473ffffffffffffffffffffffffffffffffffffffff1673ffffffffffffffffffffffffffffffffffffffff1614612699576040517f08c379a0000000000000000000000000000000000000000000000000000000008152600401612690906147e4565b60405180910390fd5b801515601460008473ffffffffffffffffffffffffffffffffffffffff1673ffffffffffffffffffffffffffffffffffffffff16815260200190815260200160002060009054906101000a900460ff1615150361272b576040517f08c379a000000000000000000000000000000000000000000000000000000000815260040161272290614d5f565b60405180910390fd5b80601460008473ffffffffffffffffffffffffffffffffffffffff1673ffffffffffffffffffffffffffffffffffffffff16815260200190815260200160002060006101000a81548160ff0219169083151502179055508173ffffffffffffffffffffffffffffffffffffffff167f9d8f7706ea1113d1a167b526eca956215946dd36cc7df39eb16180222d8b5df7826040516127c891906143c9565b60405180910390a25050565b6127dc6130ac565b73ffffffffffffffffffffffffffffffffffffffff16600560009054906101000a900473ffffffffffffffffffffffffffffffffffffffff1673ffffffffffffffffffffffffffffffffffffffff161461286b576040517f08c379a0000000000000000000000000000000000000000000000000000000008152600401612862906147e4565b60405180910390fd5b80600e8190555050565b61287d6130ac565b73ffffffffffffffffffffffffffffffffffffffff16600560009054906101000a900473ffffffffffffffffffffffffffffffffffffffff1673ffffffffffffffffffffffffffffffffffffffff161461290c576040517f08c379a0000000000000000000000000000000000000000000000000000000008152600401612903906147e4565b60405180910390fd5b60005b838390508110156129ab57816014600086868581811061293257612931614d7f565b5b90506020020160208101906129479190614488565b73ffffffffffffffffffffffffffffffffffffffff1673ffffffffffffffffffffffffffffffffffffffff16815260200190815260200160002060006101000a81548160ff02191690831515021790555080806129a390614ddd565b91505061290f565b507f7fdaf542373fa84f4ee8d662c642f44e4c2276a217d7d29e548b6eb29a233b358383836040516129df93929190614ee8565b60405180910390a1505050565b6129f46130ac565b73ffffffffffffffffffffffffffffffffffffffff16600560009054906101000a900473ffffffffffffffffffffffffffffffffffffffff1673ffffffffffffffffffffffffffffffffffffffff1614612a83576040517f08c379a0000000000000000000000000000000000000000000000000000000008152600401612a7a906147e4565b60405180910390fd5b81601881905550806019819055505050565b601060009054906101000a900460ff1681565b601260009054906101000a900473ffffffffffffffffffffffffffffffffffffffff1681565b6000600160008473ffffffffffffffffffffffffffffffffffffffff1673ffffffffffffffffffffffffffffffffffffffff16815260200190815260200160002060008373ffffffffffffffffffffffffffffffffffffffff1673ffffffffffffffffffffffffffffffffffffffff16815260200190815260200160002054905092915050565b60195481565b612b636130ac565b73ffffffffffffffffffffffffffffffffffffffff16600560009054906101000a900473ffffffffffffffffffffffffffffffffffffffff1673ffffffffffffffffffffffffffffffffffffffff1614612bf2576040517f08c379a0000000000000000000000000000000000000000000000000000000008152600401612be9906147e4565b60405180910390fd5b3073ffffffffffffffffffffffffffffffffffffffff168273ffffffffffffffffffffffffffffffffffffffff1603612c60576040517f08c379a0000000000000000000000000000000000000000000000000000000008152600401612c5790614f66565b60405180910390fd5b8173ffffffffffffffffffffffffffffffffffffffff1663a9059cbb612c84611e69565b836040518363ffffffff1660e01b8152600401612ca2929190614f86565b6020604051808303816000875af1158015612cc1573d6000803e3d6000fd5b505050506040513d601f19601f82011682018060405250810190612ce59190614fc4565b505050565b601060049054906101000a900473ffffffffffffffffffffffffffffffffffffffff1681565b612d186130ac565b73ffffffffffffffffffffffffffffffffffffffff16600560009054906101000a900473ffffffffffffffffffffffffffffffffffffffff1673ffffffffffffffffffffffffffffffffffffffff1614612da7576040517f08c379a0000000000000000000000000000000000000000000000000000000008152600401612d9e906147e4565b60405180910390fd5b600073ffffffffffffffffffffffffffffffffffffffff168173ffffffffffffffffffffffffffffffffffffffff1603612e16576040517f08c379a0000000000000000000000000000000000000000000000000000000008152600401612e0d90615063565b60405180910390fd5b8073ffffffffffffffffffffffffffffffffffffffff16600560009054906101000a900473ffffffffffffffffffffffffffffffffffffffff1673ffffffffffffffffffffffffffffffffffffffff167f8be0079c531659141344cd1fd0a4f28419497f9722a3daafe3b4186f6b6457e060405160405180910390a380600560006101000a81548173ffffffffffffffffffffffffffffffffffffffff021916908373ffffffffffffffffffffffffffffffffffffffff16021790555050565b612ede6130ac565b73ffffffffffffffffffffffffffffffffffffffff16600560009054906101000a900473ffffffffffffffffffffffffffffffffffffffff1673ffffffffffffffffffffffffffffffffffffffff1614612f6d576040517f08c379a0000000000000000000000000000000000000000000000000000000008152600401612f64906147e4565b60405180910390fd5b80601060036101000a81548160ff02191690831515021790555050565b6000808303612f9c5760009050612ffe565b60008284612faa9190615083565b9050828482612fb991906150f4565b14612ff9576040517f08c379a0000000000000000000000000000000000000000000000000000000008152600401612ff090615197565b60405180910390fd5b809150505b92915050565b600061304683836040518060400160405280601a81526020017f536166654d6174683a206469766973696f6e206279207a65726f000000000000815250613e56565b905092915050565b600080828461305d91906151b7565b9050838110156130a2576040517f08c379a000000000000000000000000000000000000000000000000000000000815260040161309990615237565b60405180910390fd5b8091505092915050565b600033905090565b600073ffffffffffffffffffffffffffffffffffffffff168373ffffffffffffffffffffffffffffffffffffffff1603613123576040517f08c379a000000000000000000000000000000000000000000000000000000000815260040161311a906152c9565b60405180910390fd5b600073ffffffffffffffffffffffffffffffffffffffff168273ffffffffffffffffffffffffffffffffffffffff1603613192576040517f08c379a00000000000000000000000000000000000000000000000000000000081526004016131899061535b565b60405180910390fd5b80600160008573ffffffffffffffffffffffffffffffffffffffff1673ffffffffffffffffffffffffffffffffffffffff16815260200190815260200160002060008473ffffffffffffffffffffffffffffffffffffffff1673ffffffffffffffffffffffffffffffffffffffff168152602001908152602001600020819055508173ffffffffffffffffffffffffffffffffffffffff168373ffffffffffffffffffffffffffffffffffffffff167f8c5be1e5ebec7d5bd14f71427d1e84f3dd0314c0f7b2291e5b200ac8c7c3b92583604051613270919061446d565b60405180910390a3505050565b600073ffffffffffffffffffffffffffffffffffffffff168373ffffffffffffffffffffffffffffffffffffffff16036132ec576040517f08c379a00000000000000000000000000000000000000000000000000000000081526004016132e3906153ed565b60405180910390fd5b600073ffffffffffffffffffffffffffffffffffffffff168273ffffffffffffffffffffffffffffffffffffffff160361335b576040517f08c379a00000000000000000000000000000000000000000000000000000000081526004016133529061547f565b60405180910390fd5b600b60008473ffffffffffffffffffffffffffffffffffffffff1673ffffffffffffffffffffffffffffffffffffffff16815260200190815260200160002060009054906101000a900460ff161580156133ff5750600b60008373ffffffffffffffffffffffffffffffffffffffff1673ffffffffffffffffffffffffffffffffffffffff16815260200190815260200160002060009054906101000a900460ff16155b61343e576040517f08c379a0000000000000000000000000000000000000000000000000000000008152600401613435906154eb565b60405180910390fd5b601460008473ffffffffffffffffffffffffffffffffffffffff1673ffffffffffffffffffffffffffffffffffffffff16815260200190815260200160002060009054906101000a900460ff16806134df5750601460008373ffffffffffffffffffffffffffffffffffffffff1673ffffffffffffffffffffffffffffffffffffffff16815260200190815260200160002060009054906101000a900460ff165b806134ec5750600f548111155b61352b576040517f08c379a000000000000000000000000000000000000000000000000000000000815260040161352290615557565b60405180910390fd5b601060009054906101000a900460ff16156135d257600c60009054906101000a900473ffffffffffffffffffffffffffffffffffffffff1673ffffffffffffffffffffffffffffffffffffffff1663487608588484846040518463ffffffff1660e01b815260040161359f93929190615577565b600060405180830381600087803b1580156135b957600080fd5b505af11580156135cd573d6000803e3d6000fd5b505050505b601460008473ffffffffffffffffffffffffffffffffffffffff1673ffffffffffffffffffffffffffffffffffffffff16815260200190815260200160002060009054906101000a900460ff1661367a5760011515600760159054906101000a900460ff16151514613679576040517f08c379a0000000000000000000000000000000000000000000000000000000008152600401613670906155fa565b60405180910390fd5b5b613682611e69565b73ffffffffffffffffffffffffffffffffffffffff168373ffffffffffffffffffffffffffffffffffffffff160361372a5760011515601060029054906101000a900460ff1615151480156136ea575060011515601060039054906101000a900460ff161515145b613729576040517f08c379a000000000000000000000000000000000000000000000000000000000815260040161372090614ba9565b60405180910390fd5b5b600081036137435761373e83836000613eb9565b613cba565b601060019054906101000a900460ff1680156137a85750601a60008373ffffffffffffffffffffffffffffffffffffffff1673ffffffffffffffffffffffffffffffffffffffff16815260200190815260200160002060009054906101000a900460ff165b80156137fe5750601460008473ffffffffffffffffffffffffffffffffffffffff1673ffffffffffffffffffffffffffffffffffffffff16815260200190815260200160002060009054906101000a900460ff16155b15613a925742601560008573ffffffffffffffffffffffffffffffffffffffff1673ffffffffffffffffffffffffffffffffffffffff1681526020019081526020016000205410613884576040517f08c379a000000000000000000000000000000000000000000000000000000000815260040161387b90615666565b60405180910390fd5b42601854601760008673ffffffffffffffffffffffffffffffffffffffff1673ffffffffffffffffffffffffffffffffffffffff168152602001908152602001600020546138d291906151b7565b10156139625742601760008573ffffffffffffffffffffffffffffffffffffffff1673ffffffffffffffffffffffffffffffffffffffff168152602001908152602001600020819055506000601660008573ffffffffffffffffffffffffffffffffffffffff1673ffffffffffffffffffffffffffffffffffffffff168152602001908152602001600020819055505b6139b481601660008673ffffffffffffffffffffffffffffffffffffffff1673ffffffffffffffffffffffffffffffffffffffff1681526020019081526020016000205461304e90919063ffffffff16565b601660008573ffffffffffffffffffffffffffffffffffffffff1673ffffffffffffffffffffffffffffffffffffffff16815260200190815260200160002081905550601954601660008573ffffffffffffffffffffffffffffffffffffffff1673ffffffffffffffffffffffffffffffffffffffff1681526020019081526020016000205410613a915760185442613a4d91906151b7565b601560008573ffffffffffffffffffffffffffffffffffffffff1673ffffffffffffffffffffffffffffffffffffffff168152602001908152602001600020819055505b5b6000600760149054906101000a900460ff169050601460008573ffffffffffffffffffffffffffffffffffffffff1673ffffffffffffffffffffffffffffffffffffffff16815260200190815260200160002060009054906101000a900460ff1680613b475750601460008473ffffffffffffffffffffffffffffffffffffffff1673ffffffffffffffffffffffffffffffffffffffff16815260200190815260200160002060009054906101000a900460ff165b15613b5157600090505b8015613cad576000601a60008673ffffffffffffffffffffffffffffffffffffffff1673ffffffffffffffffffffffffffffffffffffffff16815260200190815260200160002060009054906101000a900460ff1615613be157613bd36064613bc5600d5486612f8a90919063ffffffff16565b61300490919063ffffffff16565b81613bde91906151b7565b90505b601a60008573ffffffffffffffffffffffffffffffffffffffff1673ffffffffffffffffffffffffffffffffffffffff16815260200190815260200160002060009054906101000a900460ff1615613c6957613c5b6064613c4d600e5486612f8a90919063ffffffff16565b61300490919063ffffffff16565b81613c6691906151b7565b90505b613c7c818461414c90919063ffffffff16565b9250613cab85601060049054906101000a900473ffffffffffffffffffffffffffffffffffffffff1683613eb9565b505b613cb8848484613eb9565b505b505050565b6000838311158290613d07576040517f08c379a0000000000000000000000000000000000000000000000000000000008152600401613cfe91906142f6565b60405180910390fd5b5060008385613d169190615686565b9050809150509392505050565b801515601a60008473ffffffffffffffffffffffffffffffffffffffff1673ffffffffffffffffffffffffffffffffffffffff16815260200190815260200160002060009054906101000a900460ff16151503613db5576040517f08c379a0000000000000000000000000000000000000000000000000000000008152600401613dac90615752565b60405180910390fd5b80601a60008473ffffffffffffffffffffffffffffffffffffffff1673ffffffffffffffffffffffffffffffffffffffff16815260200190815260200160002060006101000a81548160ff0219169083151502179055508015158273ffffffffffffffffffffffffffffffffffffffff167fffa9187bf1f18bf477bd0ea1bcbb64e93b6a98132473929edfce215cd9b16fab60405160405180910390a35050565b60008083118290613e9d576040517f08c379a0000000000000000000000000000000000000000000000000000000008152600401613e9491906142f6565b60405180910390fd5b5060008385613eac91906150f4565b9050809150509392505050565b600073ffffffffffffffffffffffffffffffffffffffff168373ffffffffffffffffffffffffffffffffffffffff1603613f28576040517f08c379a0000000000000000000000000000000000000000000000000000000008152600401613f1f906153ed565b60405180910390fd5b600073ffffffffffffffffffffffffffffffffffffffff168273ffffffffffffffffffffffffffffffffffffffff1603613f97576040517f08c379a0000000000000000000000000000000000000000000000000000000008152600401613f8e9061547f565b60405180910390fd5b613fa2838383614196565b61400d81604051806060016040528060268152602001615773602691396000808773ffffffffffffffffffffffffffffffffffffffff1673ffffffffffffffffffffffffffffffffffffffff16815260200190815260200160002054613cbf9092919063ffffffff16565b6000808573ffffffffffffffffffffffffffffffffffffffff1673ffffffffffffffffffffffffffffffffffffffff168152602001908152602001600020819055506140a0816000808573ffffffffffffffffffffffffffffffffffffffff1673ffffffffffffffffffffffffffffffffffffffff1681526020019081526020016000205461304e90919063ffffffff16565b6000808473ffffffffffffffffffffffffffffffffffffffff1673ffffffffffffffffffffffffffffffffffffffff168152602001908152602001600020819055508173ffffffffffffffffffffffffffffffffffffffff168373ffffffffffffffffffffffffffffffffffffffff167fddf252ad1be2c89b69c2b068fc378daa952ba7f163c4a11628f55a4df523b3ef8360405161413f919061446d565b60405180910390a3505050565b600061418e83836040518060400160405280601e81526020017f536166654d6174683a207375627472616374696f6e206f766572666c6f770000815250613cbf565b905092915050565b505050565b600080fd5b600080fd5b60008115159050919050565b6141ba816141a5565b81146141c557600080fd5b50565b6000813590506141d7816141b1565b92915050565b6000602082840312156141f3576141f261419b565b5b6000614201848285016141c8565b91505092915050565b600073ffffffffffffffffffffffffffffffffffffffff82169050919050565b60006142358261420a565b9050919050565b6142458161422a565b82525050565b6000602082019050614260600083018461423c565b92915050565b600081519050919050565b600082825260208201905092915050565b60005b838110156142a0578082015181840152602081019050614285565b60008484015250505050565b6000601f19601f8301169050919050565b60006142c882614266565b6142d28185614271565b93506142e2818560208601614282565b6142eb816142ac565b840191505092915050565b6000602082019050818103600083015261431081846142bd565b905092915050565b6143218161422a565b811461432c57600080fd5b50565b60008135905061433e81614318565b92915050565b6000819050919050565b61435781614344565b811461436257600080fd5b50565b6000813590506143748161434e565b92915050565b600080604083850312156143915761439061419b565b5b600061439f8582860161432f565b92505060206143b085828601614365565b9150509250929050565b6143c3816141a5565b82525050565b60006020820190506143de60008301846143ba565b92915050565b6000819050919050565b60006144096144046143ff8461420a565b6143e4565b61420a565b9050919050565b600061441b826143ee565b9050919050565b600061442d82614410565b9050919050565b61443d81614422565b82525050565b60006020820190506144586000830184614434565b92915050565b61446781614344565b82525050565b6000602082019050614482600083018461445e565b92915050565b60006020828403121561449e5761449d61419b565b5b60006144ac8482850161432f565b91505092915050565b6000806000606084860312156144ce576144cd61419b565b5b60006144dc8682870161432f565b93505060206144ed8682870161432f565b92505060406144fe86828701614365565b9150509250925092565b600060ff82169050919050565b61451e81614508565b82525050565b60006020820190506145396000830184614515565b92915050565b600061454a82614410565b9050919050565b61455a8161453f565b82525050565b60006020820190506145756000830184614551565b92915050565b600080604083850312156145925761459161419b565b5b60006145a08582860161432f565b92505060206145b1858286016141c8565b9150509250929050565b6000602082840312156145d1576145d061419b565b5b60006145df84828501614365565b91505092915050565b60006145f38261420a565b9050919050565b614603816145e8565b811461460e57600080fd5b50565b600081359050614620816145fa565b92915050565b60006020828403121561463c5761463b61419b565b5b600061464a84828501614611565b91505092915050565b600080fd5b600080fd5b600080fd5b60008083601f84011261467857614677614653565b5b8235905067ffffffffffffffff81111561469557614694614658565b5b6020830191508360208202830111156146b1576146b061465d565b5b9250929050565b6000806000604084860312156146d1576146d061419b565b5b600084013567ffffffffffffffff8111156146ef576146ee6141a0565b5b6146fb86828701614662565b9350935050602061470e868287016141c8565b9150509250925092565b6000806040838503121561472f5761472e61419b565b5b600061473d85828601614365565b925050602061474e85828601614365565b9150509250929050565b6000806040838503121561476f5761476e61419b565b5b600061477d8582860161432f565b925050602061478e8582860161432f565b9150509250929050565b7f4f776e61626c653a2063616c6c6572206973206e6f7420746865206f776e6572600082015250565b60006147ce602083614271565b91506147d982614798565b602082019050919050565b600060208201905081810360008301526147fd816147c1565b9050919050565b7f4e487b7100000000000000000000000000000000000000000000000000000000600052602260045260246000fd5b6000600282049050600182168061484b57607f821691505b60208210810361485e5761485d614804565b5b50919050565b7f416c7265616479204c6973746564210000000000000000000000000000000000600082015250565b600061489a600f83614271565b91506148a582614864565b602082019050919050565b600060208201905081810360008301526148c98161488d565b9050919050565b7f41786c6547616d65733a2054686520726f7574657220616c726561647920686160008201527f7320746861742061646472657373000000000000000000000000000000000000602082015250565b600061492c602e83614271565b9150614937826148d0565b604082019050919050565b6000602082019050818103600083015261495b8161491f565b9050919050565b7f6e65772061646472657373206973207a65726f20616464726573730000000000600082015250565b6000614998601b83614271565b91506149a382614962565b602082019050919050565b600060208201905081810360008301526149c78161498b565b9050919050565b6000815190506149dd81614318565b92915050565b6000602082840312156149f9576149f861419b565b5b6000614a07848285016149ce565b91505092915050565b6000604082019050614a25600083018561423c565b614a32602083018461423c565b9392505050565b7f4f776e61626c653a2063616c6c6572206973206e6f742074686520666972737460008201527f20766f7465720000000000000000000000000000000000000000000000000000602082015250565b6000614a95602683614271565b9150614aa082614a39565b604082019050919050565b60006020820190508181036000830152614ac481614a88565b9050919050565b7f4f776e61626c653a206e657720766f74657220697320746865207a65726f206160008201527f6464726573730000000000000000000000000000000000000000000000000000602082015250565b6000614b27602683614271565b9150614b3282614acb565b604082019050919050565b60006020820190508181036000830152614b5681614b1a565b9050919050565b7f6e6f742061637469766500000000000000000000000000000000000000000000600082015250565b6000614b93600a83614271565b9150614b9e82614b5d565b602082019050919050565b60006020820190508181036000830152614bc281614b86565b9050919050565b7f64657374696e6174696f6e206973207a65726f20616464726573730000000000600082015250565b6000614bff601b83614271565b9150614c0a82614bc9565b602082019050919050565b60006020820190508181036000830152614c2e81614bf2565b9050919050565b7f41786c6547616d65733a205468652050616e425553445377617020706169722060008201527f63616e6e6f742062652072656d6f7665642066726f6d206175746f6d6174656460208201527f4d61726b65744d616b6572506169727300000000000000000000000000000000604082015250565b6000614cb7605083614271565b9150614cc282614c35565b606082019050919050565b60006020820190508181036000830152614ce681614caa565b9050919050565b7f41786c6547616d65733a204163636f756e7420697320616c726561647920746860008201527f652076616c7565206f6620276578636c75646564270000000000000000000000602082015250565b6000614d49603583614271565b9150614d5482614ced565b604082019050919050565b60006020820190508181036000830152614d7881614d3c565b9050919050565b7f4e487b7100000000000000000000000000000000000000000000000000000000600052603260045260246000fd5b7f4e487b7100000000000000000000000000000000000000000000000000000000600052601160045260246000fd5b6000614de882614344565b91507fffffffffffffffffffffffffffffffffffffffffffffffffffffffffffffffff8203614e1a57614e19614dae565b5b600182019050919050565b600082825260208201905092915050565b6000819050919050565b614e498161422a565b82525050565b6000614e5b8383614e40565b60208301905092915050565b6000614e76602084018461432f565b905092915050565b6000602082019050919050565b6000614e978385614e25565b9350614ea282614e36565b8060005b85811015614edb57614eb88284614e67565b614ec28882614e4f565b9750614ecd83614e7e565b925050600181019050614ea6565b5085925050509392505050565b60006040820190508181036000830152614f03818587614e8b565b9050614f1260208301846143ba565b949350505050565b7f63616e6e6f742062652073616d6520636f6e7472616374206164647265737300600082015250565b6000614f50601f83614271565b9150614f5b82614f1a565b602082019050919050565b60006020820190508181036000830152614f7f81614f43565b9050919050565b6000604082019050614f9b600083018561423c565b614fa8602083018461445e565b9392505050565b600081519050614fbe816141b1565b92915050565b600060208284031215614fda57614fd961419b565b5b6000614fe884828501614faf565b91505092915050565b7f4f776e61626c653a206e6577206f776e657220697320746865207a65726f206160008201527f6464726573730000000000000000000000000000000000000000000000000000602082015250565b600061504d602683614271565b915061505882614ff1565b604082019050919050565b6000602082019050818103600083015261507c81615040565b9050919050565b600061508e82614344565b915061509983614344565b92508282026150a781614344565b915082820484148315176150be576150bd614dae565b5b5092915050565b7f4e487b7100000000000000000000000000000000000000000000000000000000600052601260045260246000fd5b60006150ff82614344565b915061510a83614344565b92508261511a576151196150c5565b5b828204905092915050565b7f536166654d6174683a206d756c7469706c69636174696f6e206f766572666c6f60008201527f7700000000000000000000000000000000000000000000000000000000000000602082015250565b6000615181602183614271565b915061518c82615125565b604082019050919050565b600060208201905081810360008301526151b081615174565b9050919050565b60006151c282614344565b91506151cd83614344565b92508282019050808211156151e5576151e4614dae565b5b92915050565b7f536166654d6174683a206164646974696f6e206f766572666c6f770000000000600082015250565b6000615221601b83614271565b915061522c826151eb565b602082019050919050565b6000602082019050818103600083015261525081615214565b9050919050565b7f45524332303a20617070726f76652066726f6d20746865207a65726f2061646460008201527f7265737300000000000000000000000000000000000000000000000000000000602082015250565b60006152b3602483614271565b91506152be82615257565b604082019050919050565b600060208201905081810360008301526152e2816152a6565b9050919050565b7f45524332303a20617070726f766520746f20746865207a65726f20616464726560008201527f7373000000000000000000000000000000000000000000000000000000000000602082015250565b6000615345602283614271565b9150615350826152e9565b604082019050919050565b6000602082019050818103600083015261537481615338565b9050919050565b7f45524332303a207472616e736665722066726f6d20746865207a65726f20616460008201527f6472657373000000000000000000000000000000000000000000000000000000602082015250565b60006153d7602583614271565b91506153e28261537b565b604082019050919050565b60006020820190508181036000830152615406816153ca565b9050919050565b7f45524332303a207472616e7366657220746f20746865207a65726f206164647260008201527f6573730000000000000000000000000000000000000000000000000000000000602082015250565b6000615469602383614271565b91506154748261540d565b604082019050919050565b600060208201905081810360008301526154988161545c565b9050919050565b7f426c61636b6c6973746564206164647265737300000000000000000000000000600082015250565b60006154d5601383614271565b91506154e08261549f565b602082019050919050565b60006020820190508181036000830152615504816154c8565b9050919050565b7f4d6178207472616e73616374696f6e204c696d69742045786365656473210000600082015250565b6000615541601e83614271565b915061554c8261550b565b602082019050919050565b6000602082019050818103600083015261557081615534565b9050919050565b600060608201905061558c600083018661423c565b615599602083018561423c565b6155a6604083018461445e565b949350505050565b7f54726164696e67206e6f7420656e61626c656420796574000000000000000000600082015250565b60006155e4601783614271565b91506155ef826155ae565b602082019050919050565b60006020820190508181036000830152615613816155d7565b9050919050565b7f4572723a20616e746944756d7020616374697665000000000000000000000000600082015250565b6000615650601483614271565b915061565b8261561a565b602082019050919050565b6000602082019050818103600083015261567f81615643565b9050919050565b600061569182614344565b915061569c83614344565b92508282039050818111156156b4576156b3614dae565b5b92915050565b7f41786c6547616d65733a204175746f6d61746564206d61726b6574206d616b6560008201527f72207061697220697320616c72656164792073657420746f207468617420766160208201527f6c75650000000000000000000000000000000000000000000000000000000000604082015250565b600061573c604383614271565b9150615747826156ba565b606082019050919050565b6000602082019050818103600083015261576b8161572f565b905091905056fe45524332303a207472616e7366657220616d6f756e7420657863656564732062616c616e636545524332303a207472616e7366657220616d6f756e74206578636565647320616c6c6f77616e636545524332303a2064656372656173656420616c6c6f77616e63652062656c6f77207a65726fa26469706673582212207685460e98014ff7f1c9211d84cb9eae5981391596324eb2bbe0f177737a9bfc64736f6c63430008110033",
  "linkReferences": {},
  "deployedLinkReferences": {}
}