{
  "_format": "hh-sol-artifact-1",
  "contractName": "TokenPresale",
  "sourceName": "contracts/AxlePresale.sol",
  "abi": [
    {
      "inputs": [
        {
          "internalType": "contract AxleTokenInterface",
          "name": "_token",
          "type": "address"
        }
      ],
      "stateMutability": "nonpayable",
      "type": "constructor"
    },
    {
      "anonymous": false,
      "inputs": [
        {
          "indexed": true,
          "internalType": "address",
          "name": "user",
          "type": "address"
        },
        {
          "indexed": false,
          "internalType": "uint256",
          "name": "amount",
          "type": "uint256"
        }
      ],
      "name": "Deposited",
      "type": "event"
    },
    {
      "anonymous": false,
      "inputs": [
        {
          "indexed": true,
          "internalType": "address",
          "name": "previousOwner",
          "type": "address"
        },
        {
          "indexed": true,
          "internalType": "address",
          "name": "newOwner",
          "type": "address"
        }
      ],
      "name": "OwnershipTransferred",
      "type": "event"
    },
    {
      "anonymous": false,
      "inputs": [
        {
          "indexed": false,
          "internalType": "address",
          "name": "token",
          "type": "address"
        },
        {
          "indexed": false,
          "internalType": "uint256",
          "name": "amount",
          "type": "uint256"
        }
      ],
      "name": "Recovered",
      "type": "event"
    },
    {
      "inputs": [
        {
          "internalType": "address",
          "name": "account",
          "type": "address"
        }
      ],
      "name": "balanceOf",
      "outputs": [
        {
          "internalType": "uint256",
          "name": "",
          "type": "uint256"
        }
      ],
      "stateMutability": "view",
      "type": "function"
    },
    {
      "inputs": [],
      "name": "deposit",
      "outputs": [],
      "stateMutability": "payable",
      "type": "function"
    },
    {
      "inputs": [
        {
          "internalType": "address",
          "name": "",
          "type": "address"
        }
      ],
      "name": "deposits",
      "outputs": [
        {
          "internalType": "uint256",
          "name": "",
          "type": "uint256"
        }
      ],
      "stateMutability": "view",
      "type": "function"
    },
    {
      "inputs": [],
      "name": "mainWallet",
      "outputs": [
        {
          "internalType": "address payable",
          "name": "",
          "type": "address"
        }
      ],
      "stateMutability": "view",
      "type": "function"
    },
    {
      "inputs": [],
      "name": "owner",
      "outputs": [
        {
          "internalType": "address",
          "name": "",
          "type": "address"
        }
      ],
      "stateMutability": "view",
      "type": "function"
    },
    {
      "inputs": [],
      "name": "presaleStatus",
      "outputs": [
        {
          "internalType": "bool",
          "name": "",
          "type": "bool"
        }
      ],
      "stateMutability": "view",
      "type": "function"
    },
    {
      "inputs": [
        {
          "internalType": "address",
          "name": "tokenAddress",
          "type": "address"
        },
        {
          "internalType": "uint256",
          "name": "tokenAmount",
          "type": "uint256"
        }
      ],
      "name": "recoverBEP20",
      "outputs": [],
      "stateMutability": "nonpayable",
      "type": "function"
    },
    {
      "inputs": [],
      "name": "releaseFunds",
      "outputs": [],
      "stateMutability": "nonpayable",
      "type": "function"
    },
    {
      "inputs": [],
      "name": "renounceOwnership",
      "outputs": [],
      "stateMutability": "nonpayable",
      "type": "function"
    },
    {
      "inputs": [],
      "name": "resumePresale",
      "outputs": [],
      "stateMutability": "nonpayable",
      "type": "function"
    },
    {
      "inputs": [],
      "name": "rewardTokenCount",
      "outputs": [
        {
          "internalType": "uint256",
          "name": "",
          "type": "uint256"
        }
      ],
      "stateMutability": "view",
      "type": "function"
    },
    {
      "inputs": [
        {
          "internalType": "uint256",
          "name": "_count",
          "type": "uint256"
        }
      ],
      "name": "setRewardTokenCount",
      "outputs": [],
      "stateMutability": "nonpayable",
      "type": "function"
    },
    {
      "inputs": [
        {
          "internalType": "address payable",
          "name": "_address",
          "type": "address"
        }
      ],
      "name": "setWithdrawAddress",
      "outputs": [],
      "stateMutability": "nonpayable",
      "type": "function"
    },
    {
      "inputs": [],
      "name": "stopPresale",
      "outputs": [],
      "stateMutability": "nonpayable",
      "type": "function"
    },
    {
      "inputs": [],
      "name": "token",
      "outputs": [
        {
          "internalType": "contract AxleTokenInterface",
          "name": "",
          "type": "address"
        }
      ],
      "stateMutability": "view",
      "type": "function"
    },
    {
      "inputs": [],
      "name": "totalDepositedBNBBalance",
      "outputs": [
        {
          "internalType": "uint256",
          "name": "",
          "type": "uint256"
        }
      ],
      "stateMutability": "view",
      "type": "function"
    },
    {
      "inputs": [
        {
          "internalType": "address",
          "name": "newOwner",
          "type": "address"
        }
      ],
      "name": "transferOwnership",
      "outputs": [],
      "stateMutability": "nonpayable",
      "type": "function"
    },
    {
      "stateMutability": "payable",
      "type": "receive"
    }
  ],
  "bytecode": "0x60806040523480156200001157600080fd5b5060405162001f2838038062001f28833981810160405281019062000037919062000232565b600062000049620001ac60201b60201c565b9050806000806101000a81548173ffffffffffffffffffffffffffffffffffffffff021916908373ffffffffffffffffffffffffffffffffffffffff1602179055508073ffffffffffffffffffffffffffffffffffffffff16600073ffffffffffffffffffffffffffffffffffffffff167f8be0079c531659141344cd1fd0a4f28419497f9722a3daafe3b4186f6b6457e060405160405180910390a35080600160006101000a81548173ffffffffffffffffffffffffffffffffffffffff021916908373ffffffffffffffffffffffffffffffffffffffff1602179055507346d3099487ddcf724df70ed11b40109dab586f79600260006101000a81548173ffffffffffffffffffffffffffffffffffffffff021916908373ffffffffffffffffffffffffffffffffffffffff160217905550650746a52880006004819055506001600560006101000a81548160ff0219169083151502179055505062000264565b600033905090565b600080fd5b600073ffffffffffffffffffffffffffffffffffffffff82169050919050565b6000620001e682620001b9565b9050919050565b6000620001fa82620001d9565b9050919050565b6200020c81620001ed565b81146200021857600080fd5b50565b6000815190506200022c8162000201565b92915050565b6000602082840312156200024b576200024a620001b4565b5b60006200025b848285016200021b565b91505092915050565b611cb480620002746000396000f3fe6080604052600436106101025760003560e01c8063715018a611610095578063d0e30db011610064578063d0e30db0146102d8578063efa08806146102e2578063f2fde38b1461030b578063fc0c546a14610334578063fc7e286d1461035f57610111565b8063715018a6146102405780638da5cb5b14610257578063abb06b9514610282578063acfb2355146102ad57610111565b806349937fc8116100d157806349937fc8146101aa57806354f63ee5146101d557806369d89575146101ec57806370a082311461020357610111565b80630c3de21d146101165780631ad2ad1a1461013f57806323b62b75146101565780633ab1a4941461018157610111565b366101115761010f61039c565b005b600080fd5b34801561012257600080fd5b5061013d60048036038101906101389190611364565b61067d565b005b34801561014b57600080fd5b5061015461071c565b005b34801561016257600080fd5b5061016b6107ce565b60405161017891906113d2565b60405180910390f35b34801561018d57600080fd5b506101a860048036038101906101a39190611419565b6107f4565b005b3480156101b657600080fd5b506101bf6108cd565b6040516101cc9190611455565b60405180910390f35b3480156101e157600080fd5b506101ea6108d3565b005b3480156101f857600080fd5b50610201610985565b005b34801561020f57600080fd5b5061022a600480360381019061022591906114ae565b610af6565b6040516102379190611455565b60405180910390f35b34801561024c57600080fd5b50610255610b9b565b005b34801561026357600080fd5b5061026c610cee565b60405161027991906114ea565b60405180910390f35b34801561028e57600080fd5b50610297610d17565b6040516102a49190611455565b60405180910390f35b3480156102b957600080fd5b506102c2610d1d565b6040516102cf9190611520565b60405180910390f35b6102e061039c565b005b3480156102ee57600080fd5b506103096004803603810190610304919061153b565b610d30565b005b34801561031757600080fd5b50610332600480360381019061032d91906114ae565b610eef565b005b34801561034057600080fd5b506103496110b0565b60405161035691906115da565b60405180910390f35b34801561036b57600080fd5b50610386600480360381019061038191906114ae565b6110d6565b6040516103939190611455565b60405180910390f35b60011515600560009054906101000a900460ff161515146103f2576040517f08c379a00000000000000000000000000000000000000000000000000000000081526004016103e990611652565b60405180910390fd5b67016345785d8a000034101561043d576040517f08c379a0000000000000000000000000000000000000000000000000000000008152600401610434906116be565b60405180910390fd5b671bc16d674ec80000341115610488576040517f08c379a000000000000000000000000000000000000000000000000000000000815260040161047f906116be565b60405180910390fd5b60006104b56004546104a7633b9aca00346110ee90919063ffffffff16565b61113890919063ffffffff16565b9050600160009054906101000a900473ffffffffffffffffffffffffffffffffffffffff1673ffffffffffffffffffffffffffffffffffffffff166323b872dd600260009054906101000a900473ffffffffffffffffffffffffffffffffffffffff1633846040518463ffffffff1660e01b8152600401610538939291906116ff565b6020604051808303816000875af1158015610557573d6000803e3d6000fd5b505050506040513d601f19601f8201168201806040525081019061057b9190611762565b50610591346003546111b290919063ffffffff16565b6003819055506105e934600660003373ffffffffffffffffffffffffffffffffffffffff1673ffffffffffffffffffffffffffffffffffffffff168152602001908152602001600020546111b290919063ffffffff16565b600660003373ffffffffffffffffffffffffffffffffffffffff1673ffffffffffffffffffffffffffffffffffffffff168152602001908152602001600020819055503373ffffffffffffffffffffffffffffffffffffffff167f2da466a7b24304f47e87fa2e1e5a81b9831ce54fec19055ce277ca2f39ba42c4346040516106729190611455565b60405180910390a250565b610685611210565b73ffffffffffffffffffffffffffffffffffffffff1660008054906101000a900473ffffffffffffffffffffffffffffffffffffffff1673ffffffffffffffffffffffffffffffffffffffff1614610712576040517f08c379a0000000000000000000000000000000000000000000000000000000008152600401610709906117db565b60405180910390fd5b8060048190555050565b610724611210565b73ffffffffffffffffffffffffffffffffffffffff1660008054906101000a900473ffffffffffffffffffffffffffffffffffffffff1673ffffffffffffffffffffffffffffffffffffffff16146107b1576040517f08c379a00000000000000000000000000000000000000000000000000000000081526004016107a8906117db565b60405180910390fd5b6000600560006101000a81548160ff021916908315150217905550565b600260009054906101000a900473ffffffffffffffffffffffffffffffffffffffff1681565b6107fc611210565b73ffffffffffffffffffffffffffffffffffffffff1660008054906101000a900473ffffffffffffffffffffffffffffffffffffffff1673ffffffffffffffffffffffffffffffffffffffff1614610889576040517f08c379a0000000000000000000000000000000000000000000000000000000008152600401610880906117db565b60405180910390fd5b80600260006101000a81548173ffffffffffffffffffffffffffffffffffffffff021916908373ffffffffffffffffffffffffffffffffffffffff16021790555050565b60035481565b6108db611210565b73ffffffffffffffffffffffffffffffffffffffff1660008054906101000a900473ffffffffffffffffffffffffffffffffffffffff1673ffffffffffffffffffffffffffffffffffffffff1614610968576040517f08c379a000000000000000000000000000000000000000000000000000000000815260040161095f906117db565b60405180910390fd5b6001600560006101000a81548160ff021916908315150217905550565b61098d611210565b73ffffffffffffffffffffffffffffffffffffffff1660008054906101000a900473ffffffffffffffffffffffffffffffffffffffff1673ffffffffffffffffffffffffffffffffffffffff1614610a1a576040517f08c379a0000000000000000000000000000000000000000000000000000000008152600401610a11906117db565b60405180910390fd5b60001515600560009054906101000a900460ff16151514610a70576040517f08c379a0000000000000000000000000000000000000000000000000000000008152600401610a6790611847565b60405180910390fd5b600260009054906101000a900473ffffffffffffffffffffffffffffffffffffffff1673ffffffffffffffffffffffffffffffffffffffff166108fc479081150290604051600060405180830381858888f19350505050158015610ad8573d6000803e3d6000fd5b50610aee4760035461121890919063ffffffff16565b600381905550565b6000600160009054906101000a900473ffffffffffffffffffffffffffffffffffffffff1673ffffffffffffffffffffffffffffffffffffffff166370a08231836040518263ffffffff1660e01b8152600401610b5391906114ea565b602060405180830381865afa158015610b70573d6000803e3d6000fd5b505050506040513d601f19601f82011682018060405250810190610b94919061187c565b9050919050565b610ba3611210565b73ffffffffffffffffffffffffffffffffffffffff1660008054906101000a900473ffffffffffffffffffffffffffffffffffffffff1673ffffffffffffffffffffffffffffffffffffffff1614610c30576040517f08c379a0000000000000000000000000000000000000000000000000000000008152600401610c27906117db565b60405180910390fd5b600073ffffffffffffffffffffffffffffffffffffffff1660008054906101000a900473ffffffffffffffffffffffffffffffffffffffff1673ffffffffffffffffffffffffffffffffffffffff167f8be0079c531659141344cd1fd0a4f28419497f9722a3daafe3b4186f6b6457e060405160405180910390a360008060006101000a81548173ffffffffffffffffffffffffffffffffffffffff021916908373ffffffffffffffffffffffffffffffffffffffff160217905550565b60008060009054906101000a900473ffffffffffffffffffffffffffffffffffffffff16905090565b60045481565b600560009054906101000a900460ff1681565b610d38611210565b73ffffffffffffffffffffffffffffffffffffffff1660008054906101000a900473ffffffffffffffffffffffffffffffffffffffff1673ffffffffffffffffffffffffffffffffffffffff1614610dc5576040517f08c379a0000000000000000000000000000000000000000000000000000000008152600401610dbc906117db565b60405180910390fd5b8173ffffffffffffffffffffffffffffffffffffffff1663a9059cbb3073ffffffffffffffffffffffffffffffffffffffff16638da5cb5b6040518163ffffffff1660e01b8152600401602060405180830381865afa158015610e2c573d6000803e3d6000fd5b505050506040513d601f19601f82011682018060405250810190610e5091906118be565b836040518363ffffffff1660e01b8152600401610e6e9291906118eb565b6020604051808303816000875af1158015610e8d573d6000803e3d6000fd5b505050506040513d601f19601f82011682018060405250810190610eb19190611762565b507f8c1256b8896378cd5044f80c202f9772b9d77dc85c8a6eb51967210b09bfaa288282604051610ee39291906118eb565b60405180910390a15050565b610ef7611210565b73ffffffffffffffffffffffffffffffffffffffff1660008054906101000a900473ffffffffffffffffffffffffffffffffffffffff1673ffffffffffffffffffffffffffffffffffffffff1614610f84576040517f08c379a0000000000000000000000000000000000000000000000000000000008152600401610f7b906117db565b60405180910390fd5b600073ffffffffffffffffffffffffffffffffffffffff168173ffffffffffffffffffffffffffffffffffffffff1603610ff3576040517f08c379a0000000000000000000000000000000000000000000000000000000008152600401610fea90611986565b60405180910390fd5b8073ffffffffffffffffffffffffffffffffffffffff1660008054906101000a900473ffffffffffffffffffffffffffffffffffffffff1673ffffffffffffffffffffffffffffffffffffffff167f8be0079c531659141344cd1fd0a4f28419497f9722a3daafe3b4186f6b6457e060405160405180910390a3806000806101000a81548173ffffffffffffffffffffffffffffffffffffffff021916908373ffffffffffffffffffffffffffffffffffffffff16021790555050565b600160009054906101000a900473ffffffffffffffffffffffffffffffffffffffff1681565b60066020528060005260406000206000915090505481565b600061113083836040518060400160405280601a81526020017f536166654d6174683a206469766973696f6e206279207a65726f000000000000815250611262565b905092915050565b600080830361114a57600090506111ac565b6000828461115891906119d5565b90508284826111679190611a46565b146111a7576040517f08c379a000000000000000000000000000000000000000000000000000000000815260040161119e90611ae9565b60405180910390fd5b809150505b92915050565b60008082846111c19190611b09565b905083811015611206576040517f08c379a00000000000000000000000000000000000000000000000000000000081526004016111fd90611b89565b60405180910390fd5b8091505092915050565b600033905090565b600061125a83836040518060400160405280601e81526020017f536166654d6174683a207375627472616374696f6e206f766572666c6f7700008152506112c5565b905092915050565b600080831182906112a9576040517f08c379a00000000000000000000000000000000000000000000000000000000081526004016112a09190611c28565b60405180910390fd5b50600083856112b89190611a46565b9050809150509392505050565b600083831115829061130d576040517f08c379a00000000000000000000000000000000000000000000000000000000081526004016113049190611c28565b60405180910390fd5b506000838561131c9190611c4a565b9050809150509392505050565b600080fd5b6000819050919050565b6113418161132e565b811461134c57600080fd5b50565b60008135905061135e81611338565b92915050565b60006020828403121561137a57611379611329565b5b60006113888482850161134f565b91505092915050565b600073ffffffffffffffffffffffffffffffffffffffff82169050919050565b60006113bc82611391565b9050919050565b6113cc816113b1565b82525050565b60006020820190506113e760008301846113c3565b92915050565b6113f6816113b1565b811461140157600080fd5b50565b600081359050611413816113ed565b92915050565b60006020828403121561142f5761142e611329565b5b600061143d84828501611404565b91505092915050565b61144f8161132e565b82525050565b600060208201905061146a6000830184611446565b92915050565b600061147b82611391565b9050919050565b61148b81611470565b811461149657600080fd5b50565b6000813590506114a881611482565b92915050565b6000602082840312156114c4576114c3611329565b5b60006114d284828501611499565b91505092915050565b6114e481611470565b82525050565b60006020820190506114ff60008301846114db565b92915050565b60008115159050919050565b61151a81611505565b82525050565b60006020820190506115356000830184611511565b92915050565b6000806040838503121561155257611551611329565b5b600061156085828601611499565b92505060206115718582860161134f565b9150509250929050565b6000819050919050565b60006115a061159b61159684611391565b61157b565b611391565b9050919050565b60006115b282611585565b9050919050565b60006115c4826115a7565b9050919050565b6115d4816115b9565b82525050565b60006020820190506115ef60008301846115cb565b92915050565b600082825260208201905092915050565b7f50726573616c65203a2050726573616c652069732066696e6973686564000000600082015250565b600061163c601d836115f5565b915061164782611606565b602082019050919050565b6000602082019050818103600083015261166b8161162f565b9050919050565b7f50726573616c65203a20556e7375697461626c6520416d6f756e740000000000600082015250565b60006116a8601b836115f5565b91506116b382611672565b602082019050919050565b600060208201905081810360008301526116d78161169b565b9050919050565b60006116e9826115a7565b9050919050565b6116f9816116de565b82525050565b600060608201905061171460008301866116f0565b61172160208301856114db565b61172e6040830184611446565b949350505050565b61173f81611505565b811461174a57600080fd5b50565b60008151905061175c81611736565b92915050565b60006020828403121561177857611777611329565b5b60006117868482850161174d565b91505092915050565b7f4f776e61626c653a2063616c6c6572206973206e6f7420746865206f776e6572600082015250565b60006117c56020836115f5565b91506117d08261178f565b602082019050919050565b600060208201905081810360008301526117f4816117b8565b9050919050565b7f50726573616c65203a2050726573616c6520697320696e2070726f6772657373600082015250565b60006118316020836115f5565b915061183c826117fb565b602082019050919050565b6000602082019050818103600083015261186081611824565b9050919050565b60008151905061187681611338565b92915050565b60006020828403121561189257611891611329565b5b60006118a084828501611867565b91505092915050565b6000815190506118b881611482565b92915050565b6000602082840312156118d4576118d3611329565b5b60006118e2848285016118a9565b91505092915050565b600060408201905061190060008301856114db565b61190d6020830184611446565b9392505050565b7f4f776e61626c653a206e6577206f776e657220697320746865207a65726f206160008201527f6464726573730000000000000000000000000000000000000000000000000000602082015250565b60006119706026836115f5565b915061197b82611914565b604082019050919050565b6000602082019050818103600083015261199f81611963565b9050919050565b7f4e487b7100000000000000000000000000000000000000000000000000000000600052601160045260246000fd5b60006119e08261132e565b91506119eb8361132e565b92508282026119f98161132e565b91508282048414831517611a1057611a0f6119a6565b5b5092915050565b7f4e487b7100000000000000000000000000000000000000000000000000000000600052601260045260246000fd5b6000611a518261132e565b9150611a5c8361132e565b925082611a6c57611a6b611a17565b5b828204905092915050565b7f536166654d6174683a206d756c7469706c69636174696f6e206f766572666c6f60008201527f7700000000000000000000000000000000000000000000000000000000000000602082015250565b6000611ad36021836115f5565b9150611ade82611a77565b604082019050919050565b60006020820190508181036000830152611b0281611ac6565b9050919050565b6000611b148261132e565b9150611b1f8361132e565b9250828201905080821115611b3757611b366119a6565b5b92915050565b7f536166654d6174683a206164646974696f6e206f766572666c6f770000000000600082015250565b6000611b73601b836115f5565b9150611b7e82611b3d565b602082019050919050565b60006020820190508181036000830152611ba281611b66565b9050919050565b600081519050919050565b60005b83811015611bd2578082015181840152602081019050611bb7565b60008484015250505050565b6000601f19601f8301169050919050565b6000611bfa82611ba9565b611c0481856115f5565b9350611c14818560208601611bb4565b611c1d81611bde565b840191505092915050565b60006020820190508181036000830152611c428184611bef565b905092915050565b6000611c558261132e565b9150611c608361132e565b9250828203905081811115611c7857611c776119a6565b5b9291505056fea26469706673582212200017ea1b95fc10603cc138a7bd0a3f8be5ecd8c322c0fbee38f2aaf55b6b4dc264736f6c63430008110033",
  "linkReferences": {},
  "deployedLinkReferences": {}
}